{
  "contractName": "multiSigWallet",
  "abi": [
    {
      "inputs": [],
      "stateMutability": "nonpayable",
      "type": "constructor"
    },
    {
      "anonymous": false,
      "inputs": [
        {
          "indexed": false,
          "internalType": "address",
          "name": "owner",
          "type": "address"
        }
      ],
      "name": "NewOwner",
      "type": "event"
    },
    {
      "anonymous": false,
      "inputs": [
        {
          "indexed": false,
          "internalType": "address",
          "name": "src",
          "type": "address"
        },
        {
          "indexed": false,
          "internalType": "uint256",
          "name": "amount",
          "type": "uint256"
        }
      ],
      "name": "Received",
      "type": "event"
    },
    {
      "anonymous": false,
      "inputs": [
        {
          "indexed": false,
          "internalType": "address",
          "name": "dst",
          "type": "address"
        },
        {
          "indexed": false,
          "internalType": "uint256",
          "name": "amount",
          "type": "uint256"
        }
      ],
      "name": "Sent",
      "type": "event"
    },
    {
      "anonymous": false,
      "inputs": [
        {
          "indexed": false,
          "internalType": "address",
          "name": "dst",
          "type": "address"
        },
        {
          "indexed": false,
          "internalType": "uint256",
          "name": "amount",
          "type": "uint256"
        }
      ],
      "name": "Signed",
      "type": "event"
    },
    {
      "inputs": [
        {
          "internalType": "address",
          "name": "_owner",
          "type": "address"
        }
      ],
      "name": "addOwner",
      "outputs": [],
      "stateMutability": "nonpayable",
      "type": "function"
    },
    {
      "inputs": [
        {
          "internalType": "address",
          "name": "dst",
          "type": "address"
        },
        {
          "internalType": "uint256",
          "name": "amt",
          "type": "uint256"
        },
        {
          "internalType": "bytes",
          "name": "signature",
          "type": "bytes"
        }
      ],
      "name": "signSendEthers",
      "outputs": [],
      "stateMutability": "nonpayable",
      "type": "function"
    },
    {
      "inputs": [
        {
          "internalType": "address payable",
          "name": "dst",
          "type": "address"
        },
        {
          "internalType": "uint256",
          "name": "amt",
          "type": "uint256"
        }
      ],
      "name": "send",
      "outputs": [],
      "stateMutability": "payable",
      "type": "function",
      "payable": true
    },
    {
      "inputs": [],
      "name": "recieve",
      "outputs": [],
      "stateMutability": "payable",
      "type": "function",
      "payable": true
    },
    {
      "inputs": [],
      "name": "getBalance",
      "outputs": [
        {
          "internalType": "uint256",
          "name": "",
          "type": "uint256"
        }
      ],
      "stateMutability": "view",
      "type": "function",
      "constant": true
    },
    {
      "inputs": [],
      "name": "destroy",
      "outputs": [],
      "stateMutability": "nonpayable",
      "type": "function"
    },
    {
      "inputs": [
        {
          "internalType": "bytes32",
          "name": "hash",
          "type": "bytes32"
        }
      ],
      "name": "clearSigns",
      "outputs": [],
      "stateMutability": "nonpayable",
      "type": "function"
    },
    {
      "inputs": [
        {
          "internalType": "address",
          "name": "_owner",
          "type": "address"
        }
      ],
      "name": "isOwner",
      "outputs": [
        {
          "internalType": "bool",
          "name": "",
          "type": "bool"
        }
      ],
      "stateMutability": "view",
      "type": "function",
      "constant": true
    }
  ],
  "bytecode": "0x608060405234801561001057600080fd5b506000339080600181540180825580915050600190039060005260206000200160009091909190916101000a81548173ffffffffffffffffffffffffffffffffffffffff021916908373ffffffffffffffffffffffffffffffffffffffff1602179055506111ef806100836000396000f3fe60806040526004361061007b5760003560e01c806383197ef01161004e57806383197ef0146101a0578063a9e10bf2146101b7578063d0679d34146101c1578063eaa8cc691461020f5761007b565b806312065fe0146100805780632f54bf6e146100ab5780636fe71229146101145780637065cb481461014f575b600080fd5b34801561008c57600080fd5b50610095610301565b6040518082815260200191505060405180910390f35b3480156100b757600080fd5b506100fa600480360360208110156100ce57600080fd5b81019080803573ffffffffffffffffffffffffffffffffffffffff169060200190929190505050610309565b604051808215151515815260200191505060405180910390f35b34801561012057600080fd5b5061014d6004803603602081101561013757600080fd5b81019080803590602001909291905050506103ab565b005b34801561015b57600080fd5b5061019e6004803603602081101561017257600080fd5b81019080803573ffffffffffffffffffffffffffffffffffffffff16906020019092919050505061046e565b005b3480156101ac57600080fd5b506101b56107b8565b005b6101bf6108da565b005b61020d600480360360408110156101d757600080fd5b81019080803573ffffffffffffffffffffffffffffffffffffffff16906020019092919080359060200190929190505050610947565b005b34801561021b57600080fd5b506102ff6004803603606081101561023257600080fd5b81019080803573ffffffffffffffffffffffffffffffffffffffff169060200190929190803590602001909291908035906020019064010000000081111561027957600080fd5b82018360208201111561028b57600080fd5b803590602001918460018302840111640100000000831117156102ad57600080fd5b91908080601f016020809104026020016040519081016040528093929190818152602001838380828437600081840152601f19601f820116905080830192505050505050509192919290505050610c64565b005b600047905090565b600080600090505b6000805490508110156103a0578273ffffffffffffffffffffffffffffffffffffffff166000828154811061034257fe5b9060005260206000200160009054906101000a900473ffffffffffffffffffffffffffffffffffffffff1673ffffffffffffffffffffffffffffffffffffffff1614156103935760019150506103a6565b8080600101915050610311565b50600090505b919050565b60008090505b60008054905081101561046a576000600160008084815481106103d057fe5b9060005260206000200160009054906101000a900473ffffffffffffffffffffffffffffffffffffffff1673ffffffffffffffffffffffffffffffffffffffff1673ffffffffffffffffffffffffffffffffffffffff168152602001908152602001600020600084815260200190815260200160002060006101000a81548160ff02191690831515021790555080806001019150506103b1565b5050565b600080600090505b600080549050811015610503573373ffffffffffffffffffffffffffffffffffffffff16600082815481106104a757fe5b9060005260206000200160009054906101000a900473ffffffffffffffffffffffffffffffffffffffff1673ffffffffffffffffffffffffffffffffffffffff1614915081156104f657610503565b8080600101915050610476565b5080610577576040517f08c379a00000000000000000000000000000000000000000000000000000000081526004018080602001828103825260108152602001807f4572726f723a206e6f74206f776e65720000000000000000000000000000000081525060200191505060405180910390fd5b8160008090505b600080549050811015610671578173ffffffffffffffffffffffffffffffffffffffff16600082815481106105af57fe5b9060005260206000200160009054906101000a900473ffffffffffffffffffffffffffffffffffffffff1673ffffffffffffffffffffffffffffffffffffffff161415610664576040517f08c379a00000000000000000000000000000000000000000000000000000000081526004018080602001828103825260148152602001807f4f776e657220616c72656164792065786973747300000000000000000000000081525060200191505060405180910390fd5b808060010191505061057e565b506003600080549050106106ed576040517f08c379a00000000000000000000000000000000000000000000000000000000081526004018080602001828103825260138152602001807f4f776e6572206c696d697420726561636865640000000000000000000000000081525060200191505060405180910390fd5b6000839080600181540180825580915050600190039060005260206000200160009091909190916101000a81548173ffffffffffffffffffffffffffffffffffffffff021916908373ffffffffffffffffffffffffffffffffffffffff1602179055507f3edd90e7770f06fafde38004653b33870066c33bfc923ff6102acd601f85dfbc83604051808273ffffffffffffffffffffffffffffffffffffffff1673ffffffffffffffffffffffffffffffffffffffff16815260200191505060405180910390a1505050565b600080600090505b60008054905081101561084d573373ffffffffffffffffffffffffffffffffffffffff16600082815481106107f157fe5b9060005260206000200160009054906101000a900473ffffffffffffffffffffffffffffffffffffffff1673ffffffffffffffffffffffffffffffffffffffff1614915081156108405761084d565b80806001019150506107c0565b50806108c1576040517f08c379a00000000000000000000000000000000000000000000000000000000081526004018080602001828103825260108152602001807f4572726f723a206e6f74206f776e65720000000000000000000000000000000081525060200191505060405180910390fd5b3373ffffffffffffffffffffffffffffffffffffffff16ff5b7f88a5966d370b9919b20f3e2c13ff65706f196a4e32cc2c12bf57088f885258743334604051808373ffffffffffffffffffffffffffffffffffffffff1673ffffffffffffffffffffffffffffffffffffffff1681526020018281526020019250505060405180910390a1565b600080600090505b6000805490508110156109dc573373ffffffffffffffffffffffffffffffffffffffff166000828154811061098057fe5b9060005260206000200160009054906101000a900473ffffffffffffffffffffffffffffffffffffffff1673ffffffffffffffffffffffffffffffffffffffff1614915081156109cf576109dc565b808060010191505061094f565b5080610a50576040517f08c379a00000000000000000000000000000000000000000000000000000000081526004018080602001828103825260108152602001807f4572726f723a206e6f74206f776e65720000000000000000000000000000000081525060200191505060405180910390fd5b47821115610ac6576040517f08c379a00000000000000000000000000000000000000000000000000000000081526004018080602001828103825260198152602001807f4572726f723a206e6f7420656e6f7567682062616c616e63650000000000000081525060200191505060405180910390fd5b60008383604051602001808373ffffffffffffffffffffffffffffffffffffffff1673ffffffffffffffffffffffffffffffffffffffff1660601b815260140182815260200192505050604051602081830303815290604052805190602001209050610b3181610f9c565b610ba3576040517f08c379a000000000000000000000000000000000000000000000000000000000815260040180806020018281038252601f8152602001807f4572726f723a205472616e73636174696f6e206e6f7420617070726f7665640081525060200191505060405180910390fd5b8373ffffffffffffffffffffffffffffffffffffffff166108fc849081150290604051600060405180830381858888f19350505050158015610be9573d6000803e3d6000fd5b50610bf3816103ab565b7f510ffb4dcab972ae9d2007a58e13f1b0881776d23cd8f5cc32f8c5be2dbf70d28484604051808373ffffffffffffffffffffffffffffffffffffffff1673ffffffffffffffffffffffffffffffffffffffff1681526020018281526020019250505060405180910390a150505050565b600080600090505b600080549050811015610cf9573373ffffffffffffffffffffffffffffffffffffffff1660008281548110610c9d57fe5b9060005260206000200160009054906101000a900473ffffffffffffffffffffffffffffffffffffffff1673ffffffffffffffffffffffffffffffffffffffff161491508115610cec57610cf9565b8080600101915050610c6c565b5080610d6d576040517f08c379a00000000000000000000000000000000000000000000000000000000081526004018080602001828103825260108152602001807f4572726f723a206e6f74206f776e65720000000000000000000000000000000081525060200191505060405180910390fd5b47831115610de3576040517f08c379a00000000000000000000000000000000000000000000000000000000081526004018080602001828103825260198152602001807f4572726f723a206e6f7420656e6f7567682062616c616e63650000000000000081525060200191505060405180910390fd5b60008484604051602001808373ffffffffffffffffffffffffffffffffffffffff1673ffffffffffffffffffffffffffffffffffffffff1660601b815260140182815260200192505050604051602081830303815290604052805190602001209050610e50338285610fb3565b610ec2576040517f08c379a00000000000000000000000000000000000000000000000000000000081526004018080602001828103825260188152602001807f4572726f723a20496e76616c6964205369676e6174757265000000000000000081525060200191505060405180910390fd5b60018060003373ffffffffffffffffffffffffffffffffffffffff1673ffffffffffffffffffffffffffffffffffffffff168152602001908152602001600020600083815260200190815260200160002060006101000a81548160ff0219169083151502179055507ff4b7ab5b8fc49d6d35d323cae6a96e1441b461f862dfc5aff92e806e2839b5b08585604051808373ffffffffffffffffffffffffffffffffffffffff1673ffffffffffffffffffffffffffffffffffffffff1681526020018281526020019250505060405180910390a15050505050565b600080610fa883610ff6565b905080915050919050565b60008373ffffffffffffffffffffffffffffffffffffffff16610fd684846110c7565b73ffffffffffffffffffffffffffffffffffffffff161490509392505050565b6000806001905060008090505b6000805490508110156110bd576001600080838154811061102057fe5b9060005260206000200160009054906101000a900473ffffffffffffffffffffffffffffffffffffffff1673ffffffffffffffffffffffffffffffffffffffff1673ffffffffffffffffffffffffffffffffffffffff168152602001908152602001600020600085815260200190815260200160002060009054906101000a900460ff169150816110b0576110bd565b8080600101915050611003565b5080915050919050565b6000808360405160200180807f19457468657265756d205369676e6564204d6573736167653a0a333200000000815250601c018281526020019150506040516020818303038152906040528051906020012090506000806000604186511461112e57600080fd5b6020860151925060408601519150606086015160001a905060018482858560405160008152602001604052604051808581526020018460ff1660ff1681526020018381526020018281526020019450505050506020604051602081039080840390855afa1580156111a3573d6000803e3d6000fd5b505050602060405103519450505050509291505056fea264697066735822122022caf5fc19d0de659ff8bf06597193c1d1aaeaa8ec6092e05aa44172a86ea4ec64736f6c63430006020033",
  "source": "pragma solidity ^0.6.2;\n\ncontract multiSigWallet{\n\n  uint constant maxOwners = 3;\n\n  address[] owners;\n  mapping(address=> mapping (bytes32 => bool)) approvals;\n  event Received(address src, uint amount);\n  event Sent(address dst, uint amount);\n  event Signed(address dst, uint amount);\n  event NewOwner(address owner);\n\n  constructor() public {\n    owners.push(msg.sender);\n  }\n\n  modifier _isOwner{\n  bool appr;\n  for(uint i = 0; i < owners.length;i++){\n    appr = (owners[i] == msg.sender);\n    if(appr)\n    break;\n  }\n  require(appr,\"Error: not owner\");\n   _;\n  }\n\n  modifier _noDuplicate(address _owner){\n  for(uint i = 0; i < owners.length;i++){\n   require(!(owners[i] == _owner),\"Owner already exists\");\n  }\n   _;\n  }\n\n function addOwner(address _owner) public _isOwner _noDuplicate(_owner){\n  require(owners.length < maxOwners,\"Owner limit reached\");\n  owners.push(_owner);\n  emit NewOwner(_owner);\n }\n\n  function signSendEthers(address dst, uint amt, bytes memory signature) public  _isOwner {\n   require(amt <= address(this).balance,\"Error: not enough balance\");\n   bytes32 hash = keccak256(abi.encodePacked(dst, amt));\n   require(verifySign(msg.sender,hash,signature), \"Error: Invalid Signature\");\n   approvals[msg.sender][hash] = true;\n   emit Signed(dst,amt);\n }\n\n function send(address payable dst, uint amt) public payable  _isOwner {\n      require(amt <= address(this).balance,\"Error: not enough balance\");\n      bytes32 hash = keccak256(abi.encodePacked(dst, amt));\n      require(isapproved(hash),\"Error: Transcation not approved\");\n      dst.transfer(amt);\n      clearSigns(hash);\n      emit Sent(dst,amt);\n  }\n\n\n\n function recieve() external payable {\n    emit Received(msg.sender, msg.value);\n  }\n\n  function getBalance() external view returns (uint) {\n   return address(this).balance;\n  }\n\n  function destroy() public _isOwner{\n   selfdestruct(msg.sender);\n  }\n\n\n function recoverSigner(bytes32 hash,bytes memory signature) internal pure returns (address)\n  {\n    bytes32 signm = keccak256(abi.encodePacked(\"\\x19Ethereum Signed Message:\\n32\", hash));\n    bytes32 r;\n    bytes32 s;\n    uint8 v;\n    require(signature.length == 65);\n     assembly {\n      r := mload(add(signature, 32))\n      s := mload(add(signature, 64))\n      v := byte(0, mload(add(signature, 96)))\n    }\n\n    return ecrecover(signm, v, r, s);\n  }\n\n  function verifySign(address signee, bytes32 hash, bytes memory signature ) internal pure returns (bool){\n        return (recoverSigner(hash,signature) == signee);\n  }\n\n\n   function consensus(bytes32 hash) internal view returns(bool){\n   bool approved = true;\n    for(uint i = 0; i < owners.length; i++){\n     approved = approvals[owners[i]][hash];\n    if(!approved){\n      break;\n    }\n  }\n     return approved;\n  }\n\n  function clearSigns(bytes32 hash) public {\n    for(uint i = 0; i < owners.length; i++){\n    approvals[owners[i]][hash] = false;\n  }\n  }\n\n  function isOwner(address _owner) external view returns (bool) {\n    for(uint i = 0; i < owners.length;i++){\n    if (owners[i] == _owner)\n     return true;\n  }\n    return false;\n  }\n\n  function isapproved(bytes32 hash) internal view returns (bool) {\n  bool appr;\n  appr = consensus(hash);\n  return appr;\n  }\n\n}",
  "sourcePath": "Z:\\BD\\ASC\\assignment\\trial1\\contracts\\multiSigWallet.sol",
  "compiler": {
    "name": "solc",
    "version": "0.6.2+commit.bacdbe57.Emscripten.clang"
  },
  "schemaVersion": "3.2.0",
  "updatedAt": "2020-07-27T18:02:25.726Z",
  "networkType": "ethereum",
  "devdoc": {
    "methods": {}
  },
  "userdoc": {
    "methods": {}
  }
}