{
  "contractName": "photoToken",
  "abi": [
    {
      "inputs": [],
      "stateMutability": "nonpayable",
      "type": "constructor"
    },
    {
      "anonymous": false,
      "inputs": [
        {
          "indexed": true,
          "internalType": "address",
          "name": "owner",
          "type": "address"
        },
        {
          "indexed": true,
          "internalType": "address",
          "name": "approved",
          "type": "address"
        },
        {
          "indexed": true,
          "internalType": "uint256",
          "name": "tokenId",
          "type": "uint256"
        }
      ],
      "name": "Approval",
      "type": "event"
    },
    {
      "anonymous": false,
      "inputs": [
        {
          "indexed": true,
          "internalType": "address",
          "name": "owner",
          "type": "address"
        },
        {
          "indexed": true,
          "internalType": "address",
          "name": "operator",
          "type": "address"
        },
        {
          "indexed": false,
          "internalType": "bool",
          "name": "approved",
          "type": "bool"
        }
      ],
      "name": "ApprovalForAll",
      "type": "event"
    },
    {
      "anonymous": false,
      "inputs": [
        {
          "indexed": true,
          "internalType": "address",
          "name": "from",
          "type": "address"
        },
        {
          "indexed": true,
          "internalType": "address",
          "name": "to",
          "type": "address"
        },
        {
          "indexed": true,
          "internalType": "uint256",
          "name": "tokenId",
          "type": "uint256"
        }
      ],
      "name": "Transfer",
      "type": "event"
    },
    {
      "inputs": [
        {
          "internalType": "address",
          "name": "to",
          "type": "address"
        },
        {
          "internalType": "uint256",
          "name": "tokenId",
          "type": "uint256"
        }
      ],
      "name": "approve",
      "outputs": [],
      "stateMutability": "nonpayable",
      "type": "function"
    },
    {
      "inputs": [
        {
          "internalType": "address",
          "name": "owner",
          "type": "address"
        }
      ],
      "name": "balanceOf",
      "outputs": [
        {
          "internalType": "uint256",
          "name": "",
          "type": "uint256"
        }
      ],
      "stateMutability": "view",
      "type": "function"
    },
    {
      "inputs": [],
      "name": "baseURI",
      "outputs": [
        {
          "internalType": "string",
          "name": "",
          "type": "string"
        }
      ],
      "stateMutability": "view",
      "type": "function"
    },
    {
      "inputs": [
        {
          "internalType": "uint256",
          "name": "tokenId",
          "type": "uint256"
        }
      ],
      "name": "getApproved",
      "outputs": [
        {
          "internalType": "address",
          "name": "",
          "type": "address"
        }
      ],
      "stateMutability": "view",
      "type": "function"
    },
    {
      "inputs": [
        {
          "internalType": "address",
          "name": "owner",
          "type": "address"
        },
        {
          "internalType": "address",
          "name": "operator",
          "type": "address"
        }
      ],
      "name": "isApprovedForAll",
      "outputs": [
        {
          "internalType": "bool",
          "name": "",
          "type": "bool"
        }
      ],
      "stateMutability": "view",
      "type": "function"
    },
    {
      "inputs": [],
      "name": "name",
      "outputs": [
        {
          "internalType": "string",
          "name": "",
          "type": "string"
        }
      ],
      "stateMutability": "view",
      "type": "function"
    },
    {
      "inputs": [
        {
          "internalType": "uint256",
          "name": "tokenId",
          "type": "uint256"
        }
      ],
      "name": "ownerOf",
      "outputs": [
        {
          "internalType": "address",
          "name": "",
          "type": "address"
        }
      ],
      "stateMutability": "view",
      "type": "function"
    },
    {
      "inputs": [
        {
          "internalType": "uint256",
          "name": "",
          "type": "uint256"
        }
      ],
      "name": "photos",
      "outputs": [
        {
          "internalType": "string",
          "name": "photo_id",
          "type": "string"
        },
        {
          "internalType": "uint256",
          "name": "size",
          "type": "uint256"
        },
        {
          "internalType": "bool",
          "name": "originality",
          "type": "bool"
        }
      ],
      "stateMutability": "view",
      "type": "function"
    },
    {
      "inputs": [
        {
          "internalType": "address",
          "name": "from",
          "type": "address"
        },
        {
          "internalType": "address",
          "name": "to",
          "type": "address"
        },
        {
          "internalType": "uint256",
          "name": "tokenId",
          "type": "uint256"
        }
      ],
      "name": "safeTransferFrom",
      "outputs": [],
      "stateMutability": "nonpayable",
      "type": "function"
    },
    {
      "inputs": [
        {
          "internalType": "address",
          "name": "from",
          "type": "address"
        },
        {
          "internalType": "address",
          "name": "to",
          "type": "address"
        },
        {
          "internalType": "uint256",
          "name": "tokenId",
          "type": "uint256"
        },
        {
          "internalType": "bytes",
          "name": "_data",
          "type": "bytes"
        }
      ],
      "name": "safeTransferFrom",
      "outputs": [],
      "stateMutability": "nonpayable",
      "type": "function"
    },
    {
      "inputs": [
        {
          "internalType": "address",
          "name": "operator",
          "type": "address"
        },
        {
          "internalType": "bool",
          "name": "approved",
          "type": "bool"
        }
      ],
      "name": "setApprovalForAll",
      "outputs": [],
      "stateMutability": "nonpayable",
      "type": "function"
    },
    {
      "inputs": [
        {
          "internalType": "bytes4",
          "name": "interfaceId",
          "type": "bytes4"
        }
      ],
      "name": "supportsInterface",
      "outputs": [
        {
          "internalType": "bool",
          "name": "",
          "type": "bool"
        }
      ],
      "stateMutability": "view",
      "type": "function"
    },
    {
      "inputs": [],
      "name": "symbol",
      "outputs": [
        {
          "internalType": "string",
          "name": "",
          "type": "string"
        }
      ],
      "stateMutability": "view",
      "type": "function"
    },
    {
      "inputs": [
        {
          "internalType": "uint256",
          "name": "index",
          "type": "uint256"
        }
      ],
      "name": "tokenByIndex",
      "outputs": [
        {
          "internalType": "uint256",
          "name": "",
          "type": "uint256"
        }
      ],
      "stateMutability": "view",
      "type": "function"
    },
    {
      "inputs": [
        {
          "internalType": "address",
          "name": "owner",
          "type": "address"
        },
        {
          "internalType": "uint256",
          "name": "index",
          "type": "uint256"
        }
      ],
      "name": "tokenOfOwnerByIndex",
      "outputs": [
        {
          "internalType": "uint256",
          "name": "",
          "type": "uint256"
        }
      ],
      "stateMutability": "view",
      "type": "function"
    },
    {
      "inputs": [
        {
          "internalType": "uint256",
          "name": "tokenId",
          "type": "uint256"
        }
      ],
      "name": "tokenURI",
      "outputs": [
        {
          "internalType": "string",
          "name": "",
          "type": "string"
        }
      ],
      "stateMutability": "view",
      "type": "function"
    },
    {
      "inputs": [],
      "name": "totalSupply",
      "outputs": [
        {
          "internalType": "uint256",
          "name": "",
          "type": "uint256"
        }
      ],
      "stateMutability": "view",
      "type": "function"
    },
    {
      "inputs": [
        {
          "internalType": "address",
          "name": "from",
          "type": "address"
        },
        {
          "internalType": "address",
          "name": "to",
          "type": "address"
        },
        {
          "internalType": "uint256",
          "name": "tokenId",
          "type": "uint256"
        }
      ],
      "name": "transferFrom",
      "outputs": [],
      "stateMutability": "nonpayable",
      "type": "function"
    },
    {
      "inputs": [
        {
          "components": [
            {
              "internalType": "string",
              "name": "photo_id",
              "type": "string"
            },
            {
              "internalType": "uint256",
              "name": "size",
              "type": "uint256"
            },
            {
              "internalType": "bool",
              "name": "originality",
              "type": "bool"
            }
          ],
          "internalType": "struct photoToken.Photo",
          "name": "_photo",
          "type": "tuple"
        }
      ],
      "name": "mint",
      "outputs": [],
      "stateMutability": "nonpayable",
      "type": "function"
    }
  ],
  "bytecode": "0x60806040523480156200001157600080fd5b506040518060400160405280600581526020017f50686f746f0000000000000000000000000000000000000000000000000000008152506040518060400160405280600381526020017f5049430000000000000000000000000000000000000000000000000000000000815250620000966301ffc9a760e01b6200011860201b60201c565b8160069080519060200190620000ae929190620001f0565b508060079080519060200190620000c7929190620001f0565b50620000e06380ac58cd60e01b6200011860201b60201c565b620000f8635b5e139f60e01b6200011860201b60201c565b6200011063780e9d6360e01b6200011860201b60201c565b505062000314565b63ffffffff60e01b817bffffffffffffffffffffffffffffffffffffffffffffffffffffffff1916141562000184576040517f08c379a00000000000000000000000000000000000000000000000000000000081526004016200017b90620002e1565b60405180910390fd5b6001600080837bffffffffffffffffffffffffffffffffffffffffffffffffffffffff19167bffffffffffffffffffffffffffffffffffffffffffffffffffffffff1916815260200190815260200160002060006101000a81548160ff02191690831515021790555050565b828054600181600116156101000203166002900490600052602060002090601f016020900481019282601f106200023357805160ff191683800117855562000264565b8280016001018555821562000264579182015b828111156200026357825182559160200191906001019062000246565b5b50905062000273919062000277565b5090565b6200029c91905b80821115620002985760008160009055506001016200027e565b5090565b90565b6000620002ae601c8362000303565b91507f4552433136353a20696e76616c696420696e74657266616365206964000000006000830152602082019050919050565b60006020820190508181036000830152620002fc816200029f565b9050919050565b600082825260208201905092915050565b61302f80620003246000396000f3fe608060405234801561001057600080fd5b50600436106101215760003560e01c80636352211e116100ad578063af2a5d6f11610071578063af2a5d6f1461032e578063b88d4fde14610360578063c87b56dd1461037c578063e8cc1085146103ac578063e985e9c5146103c857610121565b80636352211e146102765780636c0360eb146102a657806370a08231146102c457806395d89b41146102f4578063a22cb4651461031257610121565b806318160ddd116100f457806318160ddd146101c057806323b872dd146101de5780632f745c59146101fa57806342842e0e1461022a5780634f6ccce71461024657610121565b806301ffc9a71461012657806306fdde0314610156578063081812fc14610174578063095ea7b3146101a4575b600080fd5b610140600480360381019061013b9190612242565b6103f8565b60405161014d9190612b1d565b60405180910390f35b61015e61045f565b60405161016b9190612b38565b60405180910390f35b61018e600480360381019061018991906122d5565b610501565b60405161019b9190612ab6565b60405180910390f35b6101be60048036038101906101b99190612206565b610586565b005b6101c861069e565b6040516101d59190612d98565b60405180910390f35b6101f860048036038101906101f39190612100565b6106af565b005b610214600480360381019061020f9190612206565b61070f565b6040516102219190612d98565b60405180910390f35b610244600480360381019061023f9190612100565b61076a565b005b610260600480360381019061025b91906122d5565b61078a565b60405161026d9190612d98565b60405180910390f35b610290600480360381019061028b91906122d5565b6107ad565b60405161029d9190612ab6565b60405180910390f35b6102ae6107e4565b6040516102bb9190612b38565b60405180910390f35b6102de60048036038101906102d9919061209b565b610886565b6040516102eb9190612d98565b60405180910390f35b6102fc610945565b6040516103099190612b38565b60405180910390f35b61032c600480360381019061032791906121ca565b6109e7565b005b610348600480360381019061034391906122d5565b610b68565b60405161035793929190612b5a565b60405180910390f35b61037a6004803603810190610375919061214f565b610c44565b005b610396600480360381019061039191906122d5565b610ca6565b6040516103a39190612b38565b60405180910390f35b6103c660048036038101906103c19190612294565b610e31565b005b6103e260048036038101906103dd91906120c4565b610f72565b6040516103ef9190612b1d565b60405180910390f35b6000806000837bffffffffffffffffffffffffffffffffffffffffffffffffffffffff19167bffffffffffffffffffffffffffffffffffffffffffffffffffffffff1916815260200190815260200160002060009054906101000a900460ff169050919050565b606060068054600181600116156101000203166002900480601f0160208091040260200160405190810160405280929190818152602001828054600181600116156101000203166002900480156104f75780601f106104cc576101008083540402835291602001916104f7565b820191906000526020600020905b8154815290600101906020018083116104da57829003601f168201915b5050505050905090565b600061050c82611006565b61054b576040517f08c379a000000000000000000000000000000000000000000000000000000000815260040161054290612cf8565b60405180910390fd5b6004600083815260200190815260200160002060009054906101000a900473ffffffffffffffffffffffffffffffffffffffff169050919050565b6000610591826107ad565b90508073ffffffffffffffffffffffffffffffffffffffff168373ffffffffffffffffffffffffffffffffffffffff161415610602576040517f08c379a00000000000000000000000000000000000000000000000000000000081526004016105f990612d58565b60405180910390fd5b8073ffffffffffffffffffffffffffffffffffffffff16610621611023565b73ffffffffffffffffffffffffffffffffffffffff161480610650575061064f8161064a611023565b610f72565b5b61068f576040517f08c379a000000000000000000000000000000000000000000000000000000000815260040161068690612c78565b60405180910390fd5b610699838361102b565b505050565b60006106aa60026110e4565b905090565b6106c06106ba611023565b826110f9565b6106ff576040517f08c379a00000000000000000000000000000000000000000000000000000000081526004016106f690612d78565b60405180910390fd5b61070a8383836111d7565b505050565b600061076282600160008673ffffffffffffffffffffffffffffffffffffffff1673ffffffffffffffffffffffffffffffffffffffff1681526020019081526020016000206113ee90919063ffffffff16565b905092915050565b61078583838360405180602001604052806000815250610c44565b505050565b6000806107a183600261140890919063ffffffff16565b50905080915050919050565b60006107dd82604051806060016040528060298152602001612fd16029913960026114379092919063ffffffff16565b9050919050565b606060098054600181600116156101000203166002900480601f01602080910402602001604051908101604052809291908181526020018280546001816001161561010002031660029004801561087c5780601f106108515761010080835404028352916020019161087c565b820191906000526020600020905b81548152906001019060200180831161085f57829003601f168201915b5050505050905090565b60008073ffffffffffffffffffffffffffffffffffffffff168273ffffffffffffffffffffffffffffffffffffffff1614156108f7576040517f08c379a00000000000000000000000000000000000000000000000000000000081526004016108ee90612c98565b60405180910390fd5b61093e600160008473ffffffffffffffffffffffffffffffffffffffff1673ffffffffffffffffffffffffffffffffffffffff168152602001908152602001600020611456565b9050919050565b606060078054600181600116156101000203166002900480601f0160208091040260200160405190810160405280929190818152602001828054600181600116156101000203166002900480156109dd5780601f106109b2576101008083540402835291602001916109dd565b820191906000526020600020905b8154815290600101906020018083116109c057829003601f168201915b5050505050905090565b6109ef611023565b73ffffffffffffffffffffffffffffffffffffffff168273ffffffffffffffffffffffffffffffffffffffff161415610a5d576040517f08c379a0000000000000000000000000000000000000000000000000000000008152600401610a5490612c38565b60405180910390fd5b8060056000610a6a611023565b73ffffffffffffffffffffffffffffffffffffffff1673ffffffffffffffffffffffffffffffffffffffff16815260200190815260200160002060008473ffffffffffffffffffffffffffffffffffffffff1673ffffffffffffffffffffffffffffffffffffffff16815260200190815260200160002060006101000a81548160ff0219169083151502179055508173ffffffffffffffffffffffffffffffffffffffff16610b17611023565b73ffffffffffffffffffffffffffffffffffffffff167f17307eab39ab6107e8899845ad3d59bd9653f200f220920489ca2b5937696c3183604051610b5c9190612b1d565b60405180910390a35050565b600a8181548110610b7557fe5b9060005260206000209060030201600091509050806000018054600181600116156101000203166002900480601f016020809104026020016040519081016040528092919081815260200182805460018160011615610100020316600290048015610c215780601f10610bf657610100808354040283529160200191610c21565b820191906000526020600020905b815481529060010190602001808311610c0457829003601f168201915b5050505050908060010154908060020160009054906101000a900460ff16905083565b610c55610c4f611023565b836110f9565b610c94576040517f08c379a0000000000000000000000000000000000000000000000000000000008152600401610c8b90612d78565b60405180910390fd5b610ca08484848461146b565b50505050565b6060610cb182611006565b610cf0576040517f08c379a0000000000000000000000000000000000000000000000000000000008152600401610ce790612d38565b60405180910390fd5b6060600860008481526020019081526020016000208054600181600116156101000203166002900480601f016020809104026020016040519081016040528092919081815260200182805460018160011615610100020316600290048015610d995780601f10610d6e57610100808354040283529160200191610d99565b820191906000526020600020905b815481529060010190602001808311610d7c57829003601f168201915b50505050509050600060098054600181600116156101000203166002900490501415610dc85780915050610e2c565b600081511115610dfd57600981604051602001610de6929190612a92565b604051602081830303815290604052915050610e2c565b6009610e08846114c7565b604051602001610e19929190612a92565b6040516020818303038152906040529150505b919050565b60001515600b8260000151604051610e499190612a7b565b908152602001604051809103902060009054906101000a900460ff16151514610ea7576040517f08c379a0000000000000000000000000000000000000000000000000000000008152600401610e9e90612bb8565b60405180910390fd5b600a8190806001815401808255809150506001900390600052602060002090600302016000909190919091506000820151816000019080519060200190610eef929190611e6d565b506020820151816001015560408201518160020160006101000a81548160ff021916908315150217905550505060006001600a805490500390506001600b8360000151604051610f3f9190612a7b565b908152602001604051809103902060006101000a81548160ff021916908315150217905550610f6e338261160e565b5050565b6000600560008473ffffffffffffffffffffffffffffffffffffffff1673ffffffffffffffffffffffffffffffffffffffff16815260200190815260200160002060008373ffffffffffffffffffffffffffffffffffffffff1673ffffffffffffffffffffffffffffffffffffffff16815260200190815260200160002060009054906101000a900460ff16905092915050565b600061101c82600261179c90919063ffffffff16565b9050919050565b600033905090565b816004600083815260200190815260200160002060006101000a81548173ffffffffffffffffffffffffffffffffffffffff021916908373ffffffffffffffffffffffffffffffffffffffff160217905550808273ffffffffffffffffffffffffffffffffffffffff1661109e836107ad565b73ffffffffffffffffffffffffffffffffffffffff167f8c5be1e5ebec7d5bd14f71427d1e84f3dd0314c0f7b2291e5b200ac8c7c3b92560405160405180910390a45050565b60006110f2826000016117b6565b9050919050565b600061110482611006565b611143576040517f08c379a000000000000000000000000000000000000000000000000000000000815260040161113a90612c58565b60405180910390fd5b600061114e836107ad565b90508073ffffffffffffffffffffffffffffffffffffffff168473ffffffffffffffffffffffffffffffffffffffff1614806111bd57508373ffffffffffffffffffffffffffffffffffffffff166111a584610501565b73ffffffffffffffffffffffffffffffffffffffff16145b806111ce57506111cd8185610f72565b5b91505092915050565b8273ffffffffffffffffffffffffffffffffffffffff166111f7826107ad565b73ffffffffffffffffffffffffffffffffffffffff161461124d576040517f08c379a000000000000000000000000000000000000000000000000000000000815260040161124490612d18565b60405180910390fd5b600073ffffffffffffffffffffffffffffffffffffffff168273ffffffffffffffffffffffffffffffffffffffff1614156112bd576040517f08c379a00000000000000000000000000000000000000000000000000000000081526004016112b490612c18565b60405180910390fd5b6112c88383836117c7565b6112d360008261102b565b61132481600160008673ffffffffffffffffffffffffffffffffffffffff1673ffffffffffffffffffffffffffffffffffffffff1681526020019081526020016000206117cc90919063ffffffff16565b5061137681600160008573ffffffffffffffffffffffffffffffffffffffff1673ffffffffffffffffffffffffffffffffffffffff1681526020019081526020016000206117e690919063ffffffff16565b5061138d818360026118009092919063ffffffff16565b50808273ffffffffffffffffffffffffffffffffffffffff168473ffffffffffffffffffffffffffffffffffffffff167fddf252ad1be2c89b69c2b068fc378daa952ba7f163c4a11628f55a4df523b3ef60405160405180910390a4505050565b60006113fd8360000183611835565b60001c905092915050565b60008060008061141b86600001866118a2565b915091508160001c8160001c8090509350935050509250929050565b600061144a846000018460001b84611925565b60001c90509392505050565b6000611464826000016119b6565b9050919050565b6114768484846111d7565b611482848484846119c7565b6114c1576040517f08c379a00000000000000000000000000000000000000000000000000000000081526004016114b890612bd8565b60405180910390fd5b50505050565b6060600082141561150f576040518060400160405280600181526020017f30000000000000000000000000000000000000000000000000000000000000008152509050611609565b600082905060005b60008214611539578080600101915050600a828161153157fe5b049150611517565b60608167ffffffffffffffff8111801561155257600080fd5b506040519080825280601f01601f1916602001820160405280156115855781602001600182028036833780820191505090505b50905060006001830390508593505b6000841461160157600a84816115a657fe5b0660300160f81b828280600190039350815181106115c057fe5b60200101907effffffffffffffffffffffffffffffffffffffffffffffffffffffffffffff1916908160001a905350600a84816115f957fe5b049350611594565b819450505050505b919050565b600073ffffffffffffffffffffffffffffffffffffffff168273ffffffffffffffffffffffffffffffffffffffff16141561167e576040517f08c379a000000000000000000000000000000000000000000000000000000000815260040161167590612cd8565b60405180910390fd5b61168781611006565b156116c7576040517f08c379a00000000000000000000000000000000000000000000000000000000081526004016116be90612bf8565b60405180910390fd5b6116d3600083836117c7565b61172481600160008573ffffffffffffffffffffffffffffffffffffffff1673ffffffffffffffffffffffffffffffffffffffff1681526020019081526020016000206117e690919063ffffffff16565b5061173b818360026118009092919063ffffffff16565b50808273ffffffffffffffffffffffffffffffffffffffff16600073ffffffffffffffffffffffffffffffffffffffff167fddf252ad1be2c89b69c2b068fc378daa952ba7f163c4a11628f55a4df523b3ef60405160405180910390a45050565b60006117ae836000018360001b611ba8565b905092915050565b600081600001805490509050919050565b505050565b60006117de836000018360001b611bcb565b905092915050565b60006117f8836000018360001b611cb3565b905092915050565b600061182c846000018460001b8473ffffffffffffffffffffffffffffffffffffffff1660001b611d23565b90509392505050565b600081836000018054905011611880576040517f08c379a000000000000000000000000000000000000000000000000000000000815260040161187790612b98565b60405180910390fd5b82600001828154811061188f57fe5b9060005260206000200154905092915050565b600080828460000180549050116118ee576040517f08c379a00000000000000000000000000000000000000000000000000000000081526004016118e590612cb8565b60405180910390fd5b60008460000184815481106118ff57fe5b906000526020600020906002020190508060000154816001015492509250509250929050565b60008084600101600085815260200190815260200160002054905060008114158390611987576040517f08c379a000000000000000000000000000000000000000000000000000000000815260040161197e9190612b38565b60405180910390fd5b5084600001600182038154811061199a57fe5b9060005260206000209060020201600101549150509392505050565b600081600001805490509050919050565b60006119e88473ffffffffffffffffffffffffffffffffffffffff16611dff565b6119f55760019050611ba0565b600060608573ffffffffffffffffffffffffffffffffffffffff1663150b7a0260e01b611a20611023565b898888604051602401611a369493929190612ad1565b604051602081830303815290604052907bffffffffffffffffffffffffffffffffffffffffffffffffffffffff19166020820180517bffffffffffffffffffffffffffffffffffffffffffffffffffffffff8381831617835250505050604051611aa09190612a64565b6000604051808303816000865af19150503d8060008114611add576040519150601f19603f3d011682016040523d82523d6000602084013e611ae2565b606091505b509150915081611b3a57600081511115611aff5780518082602001fd5b6040517f08c379a0000000000000000000000000000000000000000000000000000000008152600401611b3190612bd8565b60405180910390fd5b600081806020019051810190611b50919061226b565b905063150b7a0260e01b7bffffffffffffffffffffffffffffffffffffffffffffffffffffffff1916817bffffffffffffffffffffffffffffffffffffffffffffffffffffffff19161493505050505b949350505050565b600080836001016000848152602001908152602001600020541415905092915050565b60008083600101600084815260200190815260200160002054905060008114611ca75760006001820390506000600186600001805490500390506000866000018281548110611c1657fe5b9060005260206000200154905080876000018481548110611c3357fe5b9060005260206000200181905550600183018760010160008381526020019081526020016000208190555086600001805480611c6b57fe5b60019003818190600052602060002001600090559055866001016000878152602001908152602001600020600090556001945050505050611cad565b60009150505b92915050565b6000611cbf8383611e4a565b611d18578260000182908060018154018082558091505060019003906000526020600020016000909190919091505582600001805490508360010160008481526020019081526020016000208190555060019050611d1d565b600090505b92915050565b6000808460010160008581526020019081526020016000205490506000811415611dca57846000016040518060400160405280868152602001858152509080600181540180825580915050600190039060005260206000209060020201600090919091909150600082015181600001556020820151816001015550508460000180549050856001016000868152602001908152602001600020819055506001915050611df8565b82856000016001830381548110611ddd57fe5b90600052602060002090600202016001018190555060009150505b9392505050565b60008060007fc5d2460186f7233c927e7db2dcc703c0e500b653ca82273b7bfad8045d85a47060001b9050833f9150808214158015611e4157506000801b8214155b92505050919050565b600080836001016000848152602001908152602001600020541415905092915050565b828054600181600116156101000203166002900490600052602060002090601f016020900481019282601f10611eae57805160ff1916838001178555611edc565b82800160010185558215611edc579182015b82811115611edb578251825591602001919060010190611ec0565b5b509050611ee99190611eed565b5090565b611f0f91905b80821115611f0b576000816000905550600101611ef3565b5090565b90565b600081359050611f2181612f74565b92915050565b600081359050611f3681612f8b565b92915050565b600081359050611f4b81612fa2565b92915050565b600081519050611f6081612fa2565b92915050565b600082601f830112611f7757600080fd5b8135611f8a611f8582612de0565b612db3565b91508082526020830160208301858383011115611fa657600080fd5b611fb1838284612f21565b50505092915050565b600082601f830112611fcb57600080fd5b8135611fde611fd982612e0c565b612db3565b91508082526020830160208301858383011115611ffa57600080fd5b612005838284612f21565b50505092915050565b60006060828403121561202057600080fd5b61202a6060612db3565b9050600082013567ffffffffffffffff81111561204657600080fd5b61205284828501611fba565b600083015250602061206684828501612086565b602083015250604061207a84828501611f27565b60408301525092915050565b60008135905061209581612fb9565b92915050565b6000602082840312156120ad57600080fd5b60006120bb84828501611f12565b91505092915050565b600080604083850312156120d757600080fd5b60006120e585828601611f12565b92505060206120f685828601611f12565b9150509250929050565b60008060006060848603121561211557600080fd5b600061212386828701611f12565b935050602061213486828701611f12565b925050604061214586828701612086565b9150509250925092565b6000806000806080858703121561216557600080fd5b600061217387828801611f12565b945050602061218487828801611f12565b935050604061219587828801612086565b925050606085013567ffffffffffffffff8111156121b257600080fd5b6121be87828801611f66565b91505092959194509250565b600080604083850312156121dd57600080fd5b60006121eb85828601611f12565b92505060206121fc85828601611f27565b9150509250929050565b6000806040838503121561221957600080fd5b600061222785828601611f12565b925050602061223885828601612086565b9150509250929050565b60006020828403121561225457600080fd5b600061226284828501611f3c565b91505092915050565b60006020828403121561227d57600080fd5b600061228b84828501611f51565b91505092915050565b6000602082840312156122a657600080fd5b600082013567ffffffffffffffff8111156122c057600080fd5b6122cc8482850161200e565b91505092915050565b6000602082840312156122e757600080fd5b60006122f584828501612086565b91505092915050565b61230781612ead565b82525050565b61231681612e9b565b82525050565b61232581612ebf565b82525050565b600061233682612e4d565b6123408185612e63565b9350612350818560208601612f30565b61235981612f63565b840191505092915050565b600061236f82612e4d565b6123798185612e74565b9350612389818560208601612f30565b80840191505092915050565b60006123a082612e58565b6123aa8185612e7f565b93506123ba818560208601612f30565b6123c381612f63565b840191505092915050565b60006123d982612e58565b6123e38185612e90565b93506123f3818560208601612f30565b80840191505092915050565b60008154600181166000811461241c576001811461244157612485565b607f600283041661242d8187612e90565b955060ff1983168652808601935050612485565b6002820461244f8187612e90565b955061245a85612e38565b60005b8281101561247c5781548189015260018201915060208101905061245d565b82880195505050505b505092915050565b600061249a602283612e7f565b91507f456e756d657261626c655365743a20696e646578206f7574206f6620626f756e60008301527f64730000000000000000000000000000000000000000000000000000000000006020830152604082019050919050565b6000612500601783612e7f565b91507f70686f746f5f696420616c7265616479206578697374730000000000000000006000830152602082019050919050565b6000612540603283612e7f565b91507f4552433732313a207472616e7366657220746f206e6f6e20455243373231526560008301527f63656976657220696d706c656d656e74657200000000000000000000000000006020830152604082019050919050565b60006125a6601c83612e7f565b91507f4552433732313a20746f6b656e20616c7265616479206d696e746564000000006000830152602082019050919050565b60006125e6602483612e7f565b91507f4552433732313a207472616e7366657220746f20746865207a65726f2061646460008301527f72657373000000000000000000000000000000000000000000000000000000006020830152604082019050919050565b600061264c601983612e7f565b91507f4552433732313a20617070726f766520746f2063616c6c6572000000000000006000830152602082019050919050565b600061268c602c83612e7f565b91507f4552433732313a206f70657261746f7220717565727920666f72206e6f6e657860008301527f697374656e7420746f6b656e00000000000000000000000000000000000000006020830152604082019050919050565b60006126f2603883612e7f565b91507f4552433732313a20617070726f76652063616c6c6572206973206e6f74206f7760008301527f6e6572206e6f7220617070726f76656420666f7220616c6c00000000000000006020830152604082019050919050565b6000612758602a83612e7f565b91507f4552433732313a2062616c616e636520717565727920666f7220746865207a6560008301527f726f2061646472657373000000000000000000000000000000000000000000006020830152604082019050919050565b60006127be602283612e7f565b91507f456e756d657261626c654d61703a20696e646578206f7574206f6620626f756e60008301527f64730000000000000000000000000000000000000000000000000000000000006020830152604082019050919050565b6000612824602083612e7f565b91507f4552433732313a206d696e7420746f20746865207a65726f20616464726573736000830152602082019050919050565b6000612864602c83612e7f565b91507f4552433732313a20617070726f76656420717565727920666f72206e6f6e657860008301527f697374656e7420746f6b656e00000000000000000000000000000000000000006020830152604082019050919050565b60006128ca602983612e7f565b91507f4552433732313a207472616e73666572206f6620746f6b656e2074686174206960008301527f73206e6f74206f776e00000000000000000000000000000000000000000000006020830152604082019050919050565b6000612930602f83612e7f565b91507f4552433732314d657461646174613a2055524920717565727920666f72206e6f60008301527f6e6578697374656e7420746f6b656e00000000000000000000000000000000006020830152604082019050919050565b6000612996602183612e7f565b91507f4552433732313a20617070726f76616c20746f2063757272656e74206f776e6560008301527f72000000000000000000000000000000000000000000000000000000000000006020830152604082019050919050565b60006129fc603183612e7f565b91507f4552433732313a207472616e736665722063616c6c6572206973206e6f74206f60008301527f776e6572206e6f7220617070726f7665640000000000000000000000000000006020830152604082019050919050565b612a5e81612f17565b82525050565b6000612a708284612364565b915081905092915050565b6000612a8782846123ce565b915081905092915050565b6000612a9e82856123ff565b9150612aaa82846123ce565b91508190509392505050565b6000602082019050612acb600083018461230d565b92915050565b6000608082019050612ae660008301876122fe565b612af3602083018661230d565b612b006040830185612a55565b8181036060830152612b12818461232b565b905095945050505050565b6000602082019050612b32600083018461231c565b92915050565b60006020820190508181036000830152612b528184612395565b905092915050565b60006060820190508181036000830152612b748186612395565b9050612b836020830185612a55565b612b90604083018461231c565b949350505050565b60006020820190508181036000830152612bb18161248d565b9050919050565b60006020820190508181036000830152612bd1816124f3565b9050919050565b60006020820190508181036000830152612bf181612533565b9050919050565b60006020820190508181036000830152612c1181612599565b9050919050565b60006020820190508181036000830152612c31816125d9565b9050919050565b60006020820190508181036000830152612c518161263f565b9050919050565b60006020820190508181036000830152612c718161267f565b9050919050565b60006020820190508181036000830152612c91816126e5565b9050919050565b60006020820190508181036000830152612cb18161274b565b9050919050565b60006020820190508181036000830152612cd1816127b1565b9050919050565b60006020820190508181036000830152612cf181612817565b9050919050565b60006020820190508181036000830152612d1181612857565b9050919050565b60006020820190508181036000830152612d31816128bd565b9050919050565b60006020820190508181036000830152612d5181612923565b9050919050565b60006020820190508181036000830152612d7181612989565b9050919050565b60006020820190508181036000830152612d91816129ef565b9050919050565b6000602082019050612dad6000830184612a55565b92915050565b6000604051905081810181811067ffffffffffffffff82111715612dd657600080fd5b8060405250919050565b600067ffffffffffffffff821115612df757600080fd5b601f19601f8301169050602081019050919050565b600067ffffffffffffffff821115612e2357600080fd5b601f19601f8301169050602081019050919050565b60008190508160005260206000209050919050565b600081519050919050565b600081519050919050565b600082825260208201905092915050565b600081905092915050565b600082825260208201905092915050565b600081905092915050565b6000612ea682612ef7565b9050919050565b6000612eb882612ef7565b9050919050565b60008115159050919050565b60007fffffffff0000000000000000000000000000000000000000000000000000000082169050919050565b600073ffffffffffffffffffffffffffffffffffffffff82169050919050565b6000819050919050565b82818337600083830152505050565b60005b83811015612f4e578082015181840152602081019050612f33565b83811115612f5d576000848401525b50505050565b6000601f19601f8301169050919050565b612f7d81612e9b565b8114612f8857600080fd5b50565b612f9481612ebf565b8114612f9f57600080fd5b50565b612fab81612ecb565b8114612fb657600080fd5b50565b612fc281612f17565b8114612fcd57600080fd5b5056fe4552433732313a206f776e657220717565727920666f72206e6f6e6578697374656e7420746f6b656ea2646970667358221220d20de6bdddcb796c194ad8b041661006f4c60214dde5f5dda625cd73752a7f0b64736f6c63430006090033",
  "immutableReferences": {},
  "source": "// SPDX-License-Identifier: MIT\n\npragma solidity ^0.6.0;\npragma experimental ABIEncoderV2;\n\nimport \"./ERC721.sol\";\n\ncontract photoToken is ERC721 {\n\n\tstruct Photo\n\t{\n        string photo_id;\n        uint size;\n        bool originality;\n\t}\n\n\tPhoto[] public photos;\n\n\tmapping(string => bool) _photoExists;\n\n\tconstructor () ERC721(\"Photo\",\"PIC\") public {\n\t}\n\n\tfunction mint(Photo memory _photo) public {\n\t\trequire(_photoExists[_photo.photo_id] == false, \"photo_id already exists\");\n\t\tphotos.push(_photo);\n\t\tuint _id = photos.length - 1;\n\t\t_photoExists[_photo.photo_id] = true;\n\t\t_mint(msg.sender, _id);\n\t}\n\n}",
  "sourcePath": "Z:\\BD\\Smart Contract Essentials\\assignment\\trial3\\photoToken\\contracts\\photoToken.sol",
  "compiler": {
    "name": "solc",
    "version": "0.6.9+commit.3e3065ac.Emscripten.clang"
  },
  "schemaVersion": "3.2.0",
  "updatedAt": "2020-06-08T03:02:39.259Z",
  "devdoc": {
    "methods": {
      "approve(address,uint256)": {
        "details": "Approves another address to transfer the given token ID The zero address indicates there is no approved address. There can only be one approved address per token at a given time. Can only be called by the token owner or an approved operator.",
        "params": {
          "to": "address to be approved for the given token ID",
          "tokenId": "uint256 ID of the token to be approved"
        }
      },
      "balanceOf(address)": {
        "details": "Gets the balance of the specified address.",
        "params": {
          "owner": "address to query the balance of"
        },
        "returns": {
          "_0": "uint256 representing the amount owned by the passed address"
        }
      },
      "baseURI()": {
        "details": "Returns the base URI set via {_setBaseURI}. This will be automatically added as a prefix in {tokenURI} to each token's URI, or to the token ID if no specific URI is set for that token ID."
      },
      "getApproved(uint256)": {
        "details": "Gets the approved address for a token ID, or zero if no address set Reverts if the token ID does not exist.",
        "params": {
          "tokenId": "uint256 ID of the token to query the approval of"
        },
        "returns": {
          "_0": "address currently approved for the given token ID"
        }
      },
      "isApprovedForAll(address,address)": {
        "details": "Tells whether an operator is approved by a given owner.",
        "params": {
          "operator": "operator address which you want to query the approval of",
          "owner": "owner address which you want to query the approval of"
        },
        "returns": {
          "_0": "bool whether the given operator is approved by the given owner"
        }
      },
      "name()": {
        "details": "Gets the token name.",
        "returns": {
          "_0": "string representing the token name"
        }
      },
      "ownerOf(uint256)": {
        "details": "Gets the owner of the specified token ID.",
        "params": {
          "tokenId": "uint256 ID of the token to query the owner of"
        },
        "returns": {
          "_0": "address currently marked as the owner of the given token ID"
        }
      },
      "safeTransferFrom(address,address,uint256)": {
        "details": "Safely transfers the ownership of a given token ID to another address If the target address is a contract, it must implement {IERC721Receiver-onERC721Received}, which is called upon a safe transfer, and return the magic value `bytes4(keccak256(\"onERC721Received(address,address,uint256,bytes)\"))`; otherwise, the transfer is reverted. Requires the msg.sender to be the owner, approved, or operator",
        "params": {
          "from": "current owner of the token",
          "to": "address to receive the ownership of the given token ID",
          "tokenId": "uint256 ID of the token to be transferred"
        }
      },
      "safeTransferFrom(address,address,uint256,bytes)": {
        "details": "Safely transfers the ownership of a given token ID to another address If the target address is a contract, it must implement {IERC721Receiver-onERC721Received}, which is called upon a safe transfer, and return the magic value `bytes4(keccak256(\"onERC721Received(address,address,uint256,bytes)\"))`; otherwise, the transfer is reverted. Requires the _msgSender() to be the owner, approved, or operator",
        "params": {
          "_data": "bytes data to send along with a safe transfer check",
          "from": "current owner of the token",
          "to": "address to receive the ownership of the given token ID",
          "tokenId": "uint256 ID of the token to be transferred"
        }
      },
      "setApprovalForAll(address,bool)": {
        "details": "Sets or unsets the approval of a given operator An operator is allowed to transfer all tokens of the sender on their behalf.",
        "params": {
          "approved": "representing the status of the approval to be set",
          "operator": "operator address to set the approval"
        }
      },
      "supportsInterface(bytes4)": {
        "details": "See {IERC165-supportsInterface}. Time complexity O(1), guaranteed to always use less than 30 000 gas."
      },
      "symbol()": {
        "details": "Gets the token symbol.",
        "returns": {
          "_0": "string representing the token symbol"
        }
      },
      "tokenByIndex(uint256)": {
        "details": "Gets the token ID at a given index of all the tokens in this contract Reverts if the index is greater or equal to the total number of tokens.",
        "params": {
          "index": "uint256 representing the index to be accessed of the tokens list"
        },
        "returns": {
          "_0": "uint256 token ID at the given index of the tokens list"
        }
      },
      "tokenOfOwnerByIndex(address,uint256)": {
        "details": "Gets the token ID at a given index of the tokens list of the requested owner.",
        "params": {
          "index": "uint256 representing the index to be accessed of the requested tokens list",
          "owner": "address owning the tokens list to be accessed"
        },
        "returns": {
          "_0": "uint256 token ID at the given index of the tokens list owned by the requested address"
        }
      },
      "tokenURI(uint256)": {
        "details": "Returns the URI for a given token ID. May return an empty string. If a base URI is set (via {_setBaseURI}), it is added as a prefix to the token's own URI (via {_setTokenURI}). If there is a base URI but no token URI, the token's ID will be used as its URI when appending it to the base URI. This pattern for autogenerated token URIs can lead to large gas savings. .Examples |=== |`_setBaseURI()` |`_setTokenURI()` |`tokenURI()` | \"\" | \"\" | \"\" | \"\" | \"token.uri/123\" | \"token.uri/123\" | \"token.uri/\" | \"123\" | \"token.uri/123\" | \"token.uri/\" | \"\" | \"token.uri/<tokenId>\" |=== Requirements: - `tokenId` must exist."
      },
      "totalSupply()": {
        "details": "Gets the total amount of tokens stored by the contract.",
        "returns": {
          "_0": "uint256 representing the total amount of tokens"
        }
      },
      "transferFrom(address,address,uint256)": {
        "details": "Transfers the ownership of a given token ID to another address. Usage of this method is discouraged, use {safeTransferFrom} whenever possible. Requires the msg.sender to be the owner, approved, or operator.",
        "params": {
          "from": "current owner of the token",
          "to": "address to receive the ownership of the given token ID",
          "tokenId": "uint256 ID of the token to be transferred"
        }
      }
    }
  },
  "userdoc": {
    "methods": {}
  }
}