{
  "contractName": "photoToken",
  "abi": [
    {
      "inputs": [],
      "stateMutability": "nonpayable",
      "type": "constructor"
    },
    {
      "anonymous": false,
      "inputs": [
        {
          "indexed": true,
          "internalType": "address",
          "name": "owner",
          "type": "address"
        },
        {
          "indexed": true,
          "internalType": "address",
          "name": "approved",
          "type": "address"
        },
        {
          "indexed": true,
          "internalType": "uint256",
          "name": "tokenId",
          "type": "uint256"
        }
      ],
      "name": "Approval",
      "type": "event"
    },
    {
      "anonymous": false,
      "inputs": [
        {
          "indexed": true,
          "internalType": "address",
          "name": "owner",
          "type": "address"
        },
        {
          "indexed": true,
          "internalType": "address",
          "name": "operator",
          "type": "address"
        },
        {
          "indexed": false,
          "internalType": "bool",
          "name": "approved",
          "type": "bool"
        }
      ],
      "name": "ApprovalForAll",
      "type": "event"
    },
    {
      "anonymous": false,
      "inputs": [
        {
          "indexed": true,
          "internalType": "address",
          "name": "from",
          "type": "address"
        },
        {
          "indexed": true,
          "internalType": "address",
          "name": "to",
          "type": "address"
        },
        {
          "indexed": true,
          "internalType": "uint256",
          "name": "tokenId",
          "type": "uint256"
        }
      ],
      "name": "Transfer",
      "type": "event"
    },
    {
      "inputs": [
        {
          "internalType": "address",
          "name": "to",
          "type": "address"
        },
        {
          "internalType": "uint256",
          "name": "tokenId",
          "type": "uint256"
        }
      ],
      "name": "approve",
      "outputs": [],
      "stateMutability": "nonpayable",
      "type": "function"
    },
    {
      "inputs": [
        {
          "internalType": "address",
          "name": "owner",
          "type": "address"
        }
      ],
      "name": "balanceOf",
      "outputs": [
        {
          "internalType": "uint256",
          "name": "",
          "type": "uint256"
        }
      ],
      "stateMutability": "view",
      "type": "function"
    },
    {
      "inputs": [],
      "name": "baseURI",
      "outputs": [
        {
          "internalType": "string",
          "name": "",
          "type": "string"
        }
      ],
      "stateMutability": "view",
      "type": "function"
    },
    {
      "inputs": [
        {
          "internalType": "uint256",
          "name": "tokenId",
          "type": "uint256"
        }
      ],
      "name": "getApproved",
      "outputs": [
        {
          "internalType": "address",
          "name": "",
          "type": "address"
        }
      ],
      "stateMutability": "view",
      "type": "function"
    },
    {
      "inputs": [
        {
          "internalType": "address",
          "name": "owner",
          "type": "address"
        },
        {
          "internalType": "address",
          "name": "operator",
          "type": "address"
        }
      ],
      "name": "isApprovedForAll",
      "outputs": [
        {
          "internalType": "bool",
          "name": "",
          "type": "bool"
        }
      ],
      "stateMutability": "view",
      "type": "function"
    },
    {
      "inputs": [],
      "name": "name",
      "outputs": [
        {
          "internalType": "string",
          "name": "",
          "type": "string"
        }
      ],
      "stateMutability": "view",
      "type": "function"
    },
    {
      "inputs": [
        {
          "internalType": "uint256",
          "name": "tokenId",
          "type": "uint256"
        }
      ],
      "name": "ownerOf",
      "outputs": [
        {
          "internalType": "address",
          "name": "",
          "type": "address"
        }
      ],
      "stateMutability": "view",
      "type": "function"
    },
    {
      "inputs": [
        {
          "internalType": "uint256",
          "name": "",
          "type": "uint256"
        }
      ],
      "name": "photos",
      "outputs": [
        {
          "internalType": "uint256",
          "name": "photo_id",
          "type": "uint256"
        },
        {
          "internalType": "string",
          "name": "name",
          "type": "string"
        },
        {
          "internalType": "uint256",
          "name": "size",
          "type": "uint256"
        },
        {
          "internalType": "bool",
          "name": "originality",
          "type": "bool"
        }
      ],
      "stateMutability": "view",
      "type": "function"
    },
    {
      "inputs": [
        {
          "internalType": "address",
          "name": "from",
          "type": "address"
        },
        {
          "internalType": "address",
          "name": "to",
          "type": "address"
        },
        {
          "internalType": "uint256",
          "name": "tokenId",
          "type": "uint256"
        }
      ],
      "name": "safeTransferFrom",
      "outputs": [],
      "stateMutability": "nonpayable",
      "type": "function"
    },
    {
      "inputs": [
        {
          "internalType": "address",
          "name": "from",
          "type": "address"
        },
        {
          "internalType": "address",
          "name": "to",
          "type": "address"
        },
        {
          "internalType": "uint256",
          "name": "tokenId",
          "type": "uint256"
        },
        {
          "internalType": "bytes",
          "name": "_data",
          "type": "bytes"
        }
      ],
      "name": "safeTransferFrom",
      "outputs": [],
      "stateMutability": "nonpayable",
      "type": "function"
    },
    {
      "inputs": [
        {
          "internalType": "address",
          "name": "operator",
          "type": "address"
        },
        {
          "internalType": "bool",
          "name": "approved",
          "type": "bool"
        }
      ],
      "name": "setApprovalForAll",
      "outputs": [],
      "stateMutability": "nonpayable",
      "type": "function"
    },
    {
      "inputs": [
        {
          "internalType": "bytes4",
          "name": "interfaceId",
          "type": "bytes4"
        }
      ],
      "name": "supportsInterface",
      "outputs": [
        {
          "internalType": "bool",
          "name": "",
          "type": "bool"
        }
      ],
      "stateMutability": "view",
      "type": "function"
    },
    {
      "inputs": [],
      "name": "symbol",
      "outputs": [
        {
          "internalType": "string",
          "name": "",
          "type": "string"
        }
      ],
      "stateMutability": "view",
      "type": "function"
    },
    {
      "inputs": [
        {
          "internalType": "uint256",
          "name": "index",
          "type": "uint256"
        }
      ],
      "name": "tokenByIndex",
      "outputs": [
        {
          "internalType": "uint256",
          "name": "",
          "type": "uint256"
        }
      ],
      "stateMutability": "view",
      "type": "function"
    },
    {
      "inputs": [
        {
          "internalType": "address",
          "name": "owner",
          "type": "address"
        },
        {
          "internalType": "uint256",
          "name": "index",
          "type": "uint256"
        }
      ],
      "name": "tokenOfOwnerByIndex",
      "outputs": [
        {
          "internalType": "uint256",
          "name": "",
          "type": "uint256"
        }
      ],
      "stateMutability": "view",
      "type": "function"
    },
    {
      "inputs": [
        {
          "internalType": "uint256",
          "name": "tokenId",
          "type": "uint256"
        }
      ],
      "name": "tokenURI",
      "outputs": [
        {
          "internalType": "string",
          "name": "",
          "type": "string"
        }
      ],
      "stateMutability": "view",
      "type": "function"
    },
    {
      "inputs": [],
      "name": "totalSupply",
      "outputs": [
        {
          "internalType": "uint256",
          "name": "",
          "type": "uint256"
        }
      ],
      "stateMutability": "view",
      "type": "function"
    },
    {
      "inputs": [
        {
          "internalType": "address",
          "name": "from",
          "type": "address"
        },
        {
          "internalType": "address",
          "name": "to",
          "type": "address"
        },
        {
          "internalType": "uint256",
          "name": "tokenId",
          "type": "uint256"
        }
      ],
      "name": "transferFrom",
      "outputs": [],
      "stateMutability": "nonpayable",
      "type": "function"
    },
    {
      "inputs": [
        {
          "components": [
            {
              "internalType": "uint256",
              "name": "photo_id",
              "type": "uint256"
            },
            {
              "internalType": "string",
              "name": "name",
              "type": "string"
            },
            {
              "internalType": "uint256",
              "name": "size",
              "type": "uint256"
            },
            {
              "internalType": "bool",
              "name": "originality",
              "type": "bool"
            }
          ],
          "internalType": "struct photoToken.Photo",
          "name": "_photo",
          "type": "tuple"
        }
      ],
      "name": "mint",
      "outputs": [],
      "stateMutability": "nonpayable",
      "type": "function"
    },
    {
      "inputs": [
        {
          "internalType": "uint256",
          "name": "tokenId",
          "type": "uint256"
        }
      ],
      "name": "ownerof",
      "outputs": [
        {
          "internalType": "address",
          "name": "",
          "type": "address"
        }
      ],
      "stateMutability": "view",
      "type": "function"
    },
    {
      "inputs": [
        {
          "internalType": "address",
          "name": "owner",
          "type": "address"
        }
      ],
      "name": "balanceof",
      "outputs": [
        {
          "internalType": "uint256",
          "name": "",
          "type": "uint256"
        }
      ],
      "stateMutability": "view",
      "type": "function"
    },
    {
      "inputs": [
        {
          "components": [
            {
              "internalType": "uint256",
              "name": "photo_id",
              "type": "uint256"
            },
            {
              "internalType": "string",
              "name": "name",
              "type": "string"
            },
            {
              "internalType": "uint256",
              "name": "size",
              "type": "uint256"
            },
            {
              "internalType": "bool",
              "name": "originality",
              "type": "bool"
            }
          ],
          "internalType": "struct photoToken.Photo",
          "name": "_photo",
          "type": "tuple"
        }
      ],
      "name": "look_up",
      "outputs": [
        {
          "internalType": "uint256",
          "name": "",
          "type": "uint256"
        }
      ],
      "stateMutability": "pure",
      "type": "function"
    },
    {
      "inputs": [
        {
          "components": [
            {
              "internalType": "uint256",
              "name": "photo_id",
              "type": "uint256"
            },
            {
              "internalType": "string",
              "name": "name",
              "type": "string"
            },
            {
              "internalType": "uint256",
              "name": "size",
              "type": "uint256"
            },
            {
              "internalType": "bool",
              "name": "originality",
              "type": "bool"
            }
          ],
          "internalType": "struct photoToken.Photo",
          "name": "_photo",
          "type": "tuple"
        },
        {
          "internalType": "uint256",
          "name": "_amount",
          "type": "uint256"
        }
      ],
      "name": "exchange",
      "outputs": [
        {
          "internalType": "bool",
          "name": "",
          "type": "bool"
        }
      ],
      "stateMutability": "payable",
      "type": "function"
    }
  ],
  "bytecode": "0x60806040523480156200001157600080fd5b506040518060400160405280600581526020017f50686f746f0000000000000000000000000000000000000000000000000000008152506040518060400160405280600381526020017f5049430000000000000000000000000000000000000000000000000000000000815250620000966301ffc9a760e01b6200011860201b60201c565b8160069080519060200190620000ae929190620001f0565b508060079080519060200190620000c7929190620001f0565b50620000e06380ac58cd60e01b6200011860201b60201c565b620000f8635b5e139f60e01b6200011860201b60201c565b6200011063780e9d6360e01b6200011860201b60201c565b505062000314565b63ffffffff60e01b817bffffffffffffffffffffffffffffffffffffffffffffffffffffffff1916141562000184576040517f08c379a00000000000000000000000000000000000000000000000000000000081526004016200017b90620002e1565b60405180910390fd5b6001600080837bffffffffffffffffffffffffffffffffffffffffffffffffffffffff19167bffffffffffffffffffffffffffffffffffffffffffffffffffffffff1916815260200190815260200160002060006101000a81548160ff02191690831515021790555050565b828054600181600116156101000203166002900490600052602060002090601f016020900481019282601f106200023357805160ff191683800117855562000264565b8280016001018555821562000264579182015b828111156200026357825182559160200191906001019062000246565b5b50905062000273919062000277565b5090565b6200029c91905b80821115620002985760008160009055506001016200027e565b5090565b90565b6000620002ae601c8362000303565b91507f4552433136353a20696e76616c696420696e74657266616365206964000000006000830152602082019050919050565b60006020820190508181036000830152620002fc816200029f565b9050919050565b600082825260208201905092915050565b6134aa80620003246000396000f3fe6080604052600436106101405760003560e01c80636c0360eb116100b6578063b88d4fde1161006f578063b88d4fde146104a9578063bdebb525146104d2578063c87b56dd1461050f578063d8b2d7141461054c578063e985e9c51461057c578063ee21e10b146105b957610140565b80636c0360eb1461038457806370a08231146103af57806395d89b41146103ec5780639d6ff9d014610417578063a22cb46514610440578063af2a5d6f1461046957610140565b806323b872dd1161010857806323b872dd1461023e5780632f745c59146102675780633d64125b146102a457806342842e0e146102e15780634f6ccce71461030a5780636352211e1461034757610140565b806301ffc9a71461014557806306fdde0314610182578063081812fc146101ad578063095ea7b3146101ea57806318160ddd14610213575b600080fd5b34801561015157600080fd5b5061016c60048036038101906101679190612612565b6105f6565b6040516101799190612f6a565b60405180910390f35b34801561018e57600080fd5b5061019761065d565b6040516101a49190612f85565b60405180910390f35b3480156101b957600080fd5b506101d460048036038101906101cf91906126f9565b6106ff565b6040516101e19190612f03565b60405180910390f35b3480156101f657600080fd5b50610211600480360381019061020c91906125d6565b610784565b005b34801561021f57600080fd5b5061022861089c565b60405161023591906131c7565b60405180910390f35b34801561024a57600080fd5b50610265600480360381019061026091906124d0565b6108ad565b005b34801561027357600080fd5b5061028e600480360381019061028991906125d6565b61090d565b60405161029b91906131c7565b60405180910390f35b3480156102b057600080fd5b506102cb60048036038101906102c6919061246b565b610968565b6040516102d891906131c7565b60405180910390f35b3480156102ed57600080fd5b50610308600480360381019061030391906124d0565b61097a565b005b34801561031657600080fd5b50610331600480360381019061032c91906126f9565b61099a565b60405161033e91906131c7565b60405180910390f35b34801561035357600080fd5b5061036e600480360381019061036991906126f9565b6109bd565b60405161037b9190612f03565b60405180910390f35b34801561039057600080fd5b506103996109f4565b6040516103a69190612f85565b60405180910390f35b3480156103bb57600080fd5b506103d660048036038101906103d1919061246b565b610a96565b6040516103e391906131c7565b60405180910390f35b3480156103f857600080fd5b50610401610b55565b60405161040e9190612f85565b60405180910390f35b34801561042357600080fd5b5061043e60048036038101906104399190612664565b610bf7565b005b34801561044c57600080fd5b506104676004803603810190610462919061259a565b610d22565b005b34801561047557600080fd5b50610490600480360381019061048b91906126f9565b610ea3565b6040516104a094939291906131e2565b60405180910390f35b3480156104b557600080fd5b506104d060048036038101906104cb919061251f565b610f85565b005b3480156104de57600080fd5b506104f960048036038101906104f491906126f9565b610fe7565b6040516105069190612f03565b60405180910390f35b34801561051b57600080fd5b50610536600480360381019061053191906126f9565b610ff9565b6040516105439190612f85565b60405180910390f35b610566600480360381019061056191906126a5565b611184565b6040516105739190612f6a565b60405180910390f35b34801561058857600080fd5b506105a3600480360381019061059e9190612494565b61129a565b6040516105b09190612f6a565b60405180910390f35b3480156105c557600080fd5b506105e060048036038101906105db9190612664565b61132e565b6040516105ed91906131c7565b60405180910390f35b6000806000837bffffffffffffffffffffffffffffffffffffffffffffffffffffffff19167bffffffffffffffffffffffffffffffffffffffffffffffffffffffff1916815260200190815260200160002060009054906101000a900460ff169050919050565b606060068054600181600116156101000203166002900480601f0160208091040260200160405190810160405280929190818152602001828054600181600116156101000203166002900480156106f55780601f106106ca576101008083540402835291602001916106f5565b820191906000526020600020905b8154815290600101906020018083116106d857829003601f168201915b5050505050905090565b600061070a826113c2565b610749576040517f08c379a000000000000000000000000000000000000000000000000000000000815260040161074090613127565b60405180910390fd5b6004600083815260200190815260200160002060009054906101000a900473ffffffffffffffffffffffffffffffffffffffff169050919050565b600061078f826109bd565b90508073ffffffffffffffffffffffffffffffffffffffff168373ffffffffffffffffffffffffffffffffffffffff161415610800576040517f08c379a00000000000000000000000000000000000000000000000000000000081526004016107f790613187565b60405180910390fd5b8073ffffffffffffffffffffffffffffffffffffffff1661081f6113df565b73ffffffffffffffffffffffffffffffffffffffff16148061084e575061084d816108486113df565b61129a565b5b61088d576040517f08c379a0000000000000000000000000000000000000000000000000000000008152600401610884906130a7565b60405180910390fd5b61089783836113e7565b505050565b60006108a860026114a0565b905090565b6108be6108b86113df565b826114b5565b6108fd576040517f08c379a00000000000000000000000000000000000000000000000000000000081526004016108f4906131a7565b60405180910390fd5b610908838383611593565b505050565b600061096082600160008673ffffffffffffffffffffffffffffffffffffffff1673ffffffffffffffffffffffffffffffffffffffff1681526020019081526020016000206117aa90919063ffffffff16565b905092915050565b600061097382610a96565b9050919050565b61099583838360405180602001604052806000815250610f85565b505050565b6000806109b18360026117c490919063ffffffff16565b50905080915050919050565b60006109ed8260405180606001604052806029815260200161344c6029913960026117f39092919063ffffffff16565b9050919050565b606060098054600181600116156101000203166002900480601f016020809104026020016040519081016040528092919081815260200182805460018160011615610100020316600290048015610a8c5780601f10610a6157610100808354040283529160200191610a8c565b820191906000526020600020905b815481529060010190602001808311610a6f57829003601f168201915b5050505050905090565b60008073ffffffffffffffffffffffffffffffffffffffff168273ffffffffffffffffffffffffffffffffffffffff161415610b07576040517f08c379a0000000000000000000000000000000000000000000000000000000008152600401610afe906130c7565b60405180910390fd5b610b4e600160008473ffffffffffffffffffffffffffffffffffffffff1673ffffffffffffffffffffffffffffffffffffffff168152602001908152602001600020611812565b9050919050565b606060078054600181600116156101000203166002900480601f016020809104026020016040519081016040528092919081815260200182805460018160011615610100020316600290048015610bed5780601f10610bc257610100808354040283529160200191610bed565b820191906000526020600020905b815481529060010190602001808311610bd057829003601f168201915b5050505050905090565b60001515600c60008360000151815260200190815260200160002060009054906101000a900460ff16151514610c62576040517f08c379a0000000000000000000000000000000000000000000000000000000008152600401610c5990612fc7565b60405180910390fd5b600a819080600181540180825580915050600190039060005260206000209060040201600090919091909150600082015181600001556020820151816001019080519060200190610cb4929190612229565b506040820151816002015560608201518160030160006101000a81548160ff02191690831515021790555050506001600c60008360000151815260200190815260200160002060006101000a81548160ff021916908315150217905550610d1f338260000151611827565b50565b610d2a6113df565b73ffffffffffffffffffffffffffffffffffffffff168273ffffffffffffffffffffffffffffffffffffffff161415610d98576040517f08c379a0000000000000000000000000000000000000000000000000000000008152600401610d8f90613047565b60405180910390fd5b8060056000610da56113df565b73ffffffffffffffffffffffffffffffffffffffff1673ffffffffffffffffffffffffffffffffffffffff16815260200190815260200160002060008473ffffffffffffffffffffffffffffffffffffffff1673ffffffffffffffffffffffffffffffffffffffff16815260200190815260200160002060006101000a81548160ff0219169083151502179055508173ffffffffffffffffffffffffffffffffffffffff16610e526113df565b73ffffffffffffffffffffffffffffffffffffffff167f17307eab39ab6107e8899845ad3d59bd9653f200f220920489ca2b5937696c3183604051610e979190612f6a565b60405180910390a35050565b600a8181548110610eb057fe5b9060005260206000209060040201600091509050806000015490806001018054600181600116156101000203166002900480601f016020809104026020016040519081016040528092919081815260200182805460018160011615610100020316600290048015610f625780601f10610f3757610100808354040283529160200191610f62565b820191906000526020600020905b815481529060010190602001808311610f4557829003601f168201915b5050505050908060020154908060030160009054906101000a900460ff16905084565b610f96610f906113df565b836114b5565b610fd5576040517f08c379a0000000000000000000000000000000000000000000000000000000008152600401610fcc906131a7565b60405180910390fd5b610fe1848484846119b5565b50505050565b6000610ff2826109bd565b9050919050565b6060611004826113c2565b611043576040517f08c379a000000000000000000000000000000000000000000000000000000000815260040161103a90613167565b60405180910390fd5b6060600860008481526020019081526020016000208054600181600116156101000203166002900480601f0160208091040260200160405190810160405280929190818152602001828054600181600116156101000203166002900480156110ec5780601f106110c1576101008083540402835291602001916110ec565b820191906000526020600020905b8154815290600101906020018083116110cf57829003601f168201915b5050505050905060006009805460018160011615610100020316600290049050141561111b578091505061117f565b60008151111561115057600981604051602001611139929190612edf565b60405160208183030381529060405291505061117f565b600961115b84611a11565b60405160200161116c929190612edf565b6040516020818303038152906040529150505b919050565b6000806111908461132e565b90508083146111d4576040517f08c379a00000000000000000000000000000000000000000000000000000000081526004016111cb90613067565b60405180910390fd5b60006111e385600001516109bd565b905083600b60008373ffffffffffffffffffffffffffffffffffffffff1673ffffffffffffffffffffffffffffffffffffffff1681526020019081526020016000206000828254019250508190555083600b60008373ffffffffffffffffffffffffffffffffffffffff1673ffffffffffffffffffffffffffffffffffffffff1681526020019081526020016000206000828254039250508190555061128e81338760000151611593565b60019250505092915050565b6000600560008473ffffffffffffffffffffffffffffffffffffffff1673ffffffffffffffffffffffffffffffffffffffff16815260200190815260200160002060008373ffffffffffffffffffffffffffffffffffffffff1673ffffffffffffffffffffffffffffffffffffffff16815260200190815260200160002060009054906101000a900460ff16905092915050565b60008060009050600083604001511015801561134f5750600a836040015111155b1561135d57603290506113a1565b600a836040015111801561137657506014836040015111155b1561138457606490506113a0565b60148360400151111561139a5760c8905061139f565b600090505b5b5b600115158360600151151514156113b9576002810290505b80915050919050565b60006113d8826002611b5890919063ffffffff16565b9050919050565b600033905090565b816004600083815260200190815260200160002060006101000a81548173ffffffffffffffffffffffffffffffffffffffff021916908373ffffffffffffffffffffffffffffffffffffffff160217905550808273ffffffffffffffffffffffffffffffffffffffff1661145a836109bd565b73ffffffffffffffffffffffffffffffffffffffff167f8c5be1e5ebec7d5bd14f71427d1e84f3dd0314c0f7b2291e5b200ac8c7c3b92560405160405180910390a45050565b60006114ae82600001611b72565b9050919050565b60006114c0826113c2565b6114ff576040517f08c379a00000000000000000000000000000000000000000000000000000000081526004016114f690613087565b60405180910390fd5b600061150a836109bd565b90508073ffffffffffffffffffffffffffffffffffffffff168473ffffffffffffffffffffffffffffffffffffffff16148061157957508373ffffffffffffffffffffffffffffffffffffffff16611561846106ff565b73ffffffffffffffffffffffffffffffffffffffff16145b8061158a5750611589818561129a565b5b91505092915050565b8273ffffffffffffffffffffffffffffffffffffffff166115b3826109bd565b73ffffffffffffffffffffffffffffffffffffffff1614611609576040517f08c379a000000000000000000000000000000000000000000000000000000000815260040161160090613147565b60405180910390fd5b600073ffffffffffffffffffffffffffffffffffffffff168273ffffffffffffffffffffffffffffffffffffffff161415611679576040517f08c379a000000000000000000000000000000000000000000000000000000000815260040161167090613027565b60405180910390fd5b611684838383611b83565b61168f6000826113e7565b6116e081600160008673ffffffffffffffffffffffffffffffffffffffff1673ffffffffffffffffffffffffffffffffffffffff168152602001908152602001600020611b8890919063ffffffff16565b5061173281600160008573ffffffffffffffffffffffffffffffffffffffff1673ffffffffffffffffffffffffffffffffffffffff168152602001908152602001600020611ba290919063ffffffff16565b5061174981836002611bbc9092919063ffffffff16565b50808273ffffffffffffffffffffffffffffffffffffffff168473ffffffffffffffffffffffffffffffffffffffff167fddf252ad1be2c89b69c2b068fc378daa952ba7f163c4a11628f55a4df523b3ef60405160405180910390a4505050565b60006117b98360000183611bf1565b60001c905092915050565b6000806000806117d78660000186611c5e565b915091508160001c8160001c8090509350935050509250929050565b6000611806846000018460001b84611ce1565b60001c90509392505050565b600061182082600001611d72565b9050919050565b600073ffffffffffffffffffffffffffffffffffffffff168273ffffffffffffffffffffffffffffffffffffffff161415611897576040517f08c379a000000000000000000000000000000000000000000000000000000000815260040161188e90613107565b60405180910390fd5b6118a0816113c2565b156118e0576040517f08c379a00000000000000000000000000000000000000000000000000000000081526004016118d790613007565b60405180910390fd5b6118ec60008383611b83565b61193d81600160008573ffffffffffffffffffffffffffffffffffffffff1673ffffffffffffffffffffffffffffffffffffffff168152602001908152602001600020611ba290919063ffffffff16565b5061195481836002611bbc9092919063ffffffff16565b50808273ffffffffffffffffffffffffffffffffffffffff16600073ffffffffffffffffffffffffffffffffffffffff167fddf252ad1be2c89b69c2b068fc378daa952ba7f163c4a11628f55a4df523b3ef60405160405180910390a45050565b6119c0848484611593565b6119cc84848484611d83565b611a0b576040517f08c379a0000000000000000000000000000000000000000000000000000000008152600401611a0290612fe7565b60405180910390fd5b50505050565b60606000821415611a59576040518060400160405280600181526020017f30000000000000000000000000000000000000000000000000000000000000008152509050611b53565b600082905060005b60008214611a83578080600101915050600a8281611a7b57fe5b049150611a61565b60608167ffffffffffffffff81118015611a9c57600080fd5b506040519080825280601f01601f191660200182016040528015611acf5781602001600182028036833780820191505090505b50905060006001830390508593505b60008414611b4b57600a8481611af057fe5b0660300160f81b82828060019003935081518110611b0a57fe5b60200101907effffffffffffffffffffffffffffffffffffffffffffffffffffffffffffff1916908160001a905350600a8481611b4357fe5b049350611ade565b819450505050505b919050565b6000611b6a836000018360001b611f64565b905092915050565b600081600001805490509050919050565b505050565b6000611b9a836000018360001b611f87565b905092915050565b6000611bb4836000018360001b61206f565b905092915050565b6000611be8846000018460001b8473ffffffffffffffffffffffffffffffffffffffff1660001b6120df565b90509392505050565b600081836000018054905011611c3c576040517f08c379a0000000000000000000000000000000000000000000000000000000008152600401611c3390612fa7565b60405180910390fd5b826000018281548110611c4b57fe5b9060005260206000200154905092915050565b60008082846000018054905011611caa576040517f08c379a0000000000000000000000000000000000000000000000000000000008152600401611ca1906130e7565b60405180910390fd5b6000846000018481548110611cbb57fe5b906000526020600020906002020190508060000154816001015492509250509250929050565b60008084600101600085815260200190815260200160002054905060008114158390611d43576040517f08c379a0000000000000000000000000000000000000000000000000000000008152600401611d3a9190612f85565b60405180910390fd5b50846000016001820381548110611d5657fe5b9060005260206000209060020201600101549150509392505050565b600081600001805490509050919050565b6000611da48473ffffffffffffffffffffffffffffffffffffffff166121bb565b611db15760019050611f5c565b600060608573ffffffffffffffffffffffffffffffffffffffff1663150b7a0260e01b611ddc6113df565b898888604051602401611df29493929190612f1e565b604051602081830303815290604052907bffffffffffffffffffffffffffffffffffffffffffffffffffffffff19166020820180517bffffffffffffffffffffffffffffffffffffffffffffffffffffffff8381831617835250505050604051611e5c9190612ec8565b6000604051808303816000865af19150503d8060008114611e99576040519150601f19603f3d011682016040523d82523d6000602084013e611e9e565b606091505b509150915081611ef657600081511115611ebb5780518082602001fd5b6040517f08c379a0000000000000000000000000000000000000000000000000000000008152600401611eed90612fe7565b60405180910390fd5b600081806020019051810190611f0c919061263b565b905063150b7a0260e01b7bffffffffffffffffffffffffffffffffffffffffffffffffffffffff1916817bffffffffffffffffffffffffffffffffffffffffffffffffffffffff19161493505050505b949350505050565b600080836001016000848152602001908152602001600020541415905092915050565b600080836001016000848152602001908152602001600020549050600081146120635760006001820390506000600186600001805490500390506000866000018281548110611fd257fe5b9060005260206000200154905080876000018481548110611fef57fe5b906000526020600020018190555060018301876001016000838152602001908152602001600020819055508660000180548061202757fe5b60019003818190600052602060002001600090559055866001016000878152602001908152602001600020600090556001945050505050612069565b60009150505b92915050565b600061207b8383612206565b6120d45782600001829080600181540180825580915050600190039060005260206000200160009091909190915055826000018054905083600101600084815260200190815260200160002081905550600190506120d9565b600090505b92915050565b6000808460010160008581526020019081526020016000205490506000811415612186578460000160405180604001604052808681526020018581525090806001815401808255809150506001900390600052602060002090600202016000909190919091506000820151816000015560208201518160010155505084600001805490508560010160008681526020019081526020016000208190555060019150506121b4565b8285600001600183038154811061219957fe5b90600052602060002090600202016001018190555060009150505b9392505050565b60008060007fc5d2460186f7233c927e7db2dcc703c0e500b653ca82273b7bfad8045d85a47060001b9050833f91508082141580156121fd57506000801b8214155b92505050919050565b600080836001016000848152602001908152602001600020541415905092915050565b828054600181600116156101000203166002900490600052602060002090601f016020900481019282601f1061226a57805160ff1916838001178555612298565b82800160010185558215612298579182015b8281111561229757825182559160200191906001019061227c565b5b5090506122a591906122a9565b5090565b6122cb91905b808211156122c75760008160009055506001016122af565b5090565b90565b6000813590506122dd816133ef565b92915050565b6000813590506122f281613406565b92915050565b6000813590506123078161341d565b92915050565b60008151905061231c8161341d565b92915050565b600082601f83011261233357600080fd5b81356123466123418261325b565b61322e565b9150808252602083016020830185838301111561236257600080fd5b61236d83828461339c565b50505092915050565b600082601f83011261238757600080fd5b813561239a61239582613287565b61322e565b915080825260208301602083018583830111156123b657600080fd5b6123c183828461339c565b50505092915050565b6000608082840312156123dc57600080fd5b6123e6608061322e565b905060006123f684828501612456565b600083015250602082013567ffffffffffffffff81111561241657600080fd5b61242284828501612376565b602083015250604061243684828501612456565b604083015250606061244a848285016122e3565b60608301525092915050565b60008135905061246581613434565b92915050565b60006020828403121561247d57600080fd5b600061248b848285016122ce565b91505092915050565b600080604083850312156124a757600080fd5b60006124b5858286016122ce565b92505060206124c6858286016122ce565b9150509250929050565b6000806000606084860312156124e557600080fd5b60006124f3868287016122ce565b9350506020612504868287016122ce565b925050604061251586828701612456565b9150509250925092565b6000806000806080858703121561253557600080fd5b6000612543878288016122ce565b9450506020612554878288016122ce565b935050604061256587828801612456565b925050606085013567ffffffffffffffff81111561258257600080fd5b61258e87828801612322565b91505092959194509250565b600080604083850312156125ad57600080fd5b60006125bb858286016122ce565b92505060206125cc858286016122e3565b9150509250929050565b600080604083850312156125e957600080fd5b60006125f7858286016122ce565b925050602061260885828601612456565b9150509250929050565b60006020828403121561262457600080fd5b6000612632848285016122f8565b91505092915050565b60006020828403121561264d57600080fd5b600061265b8482850161230d565b91505092915050565b60006020828403121561267657600080fd5b600082013567ffffffffffffffff81111561269057600080fd5b61269c848285016123ca565b91505092915050565b600080604083850312156126b857600080fd5b600083013567ffffffffffffffff8111156126d257600080fd5b6126de858286016123ca565b92505060206126ef85828601612456565b9150509250929050565b60006020828403121561270b57600080fd5b600061271984828501612456565b91505092915050565b61272b81613328565b82525050565b61273a81613316565b82525050565b6127498161333a565b82525050565b600061275a826132c8565b61276481856132de565b93506127748185602086016133ab565b61277d816133de565b840191505092915050565b6000612793826132c8565b61279d81856132ef565b93506127ad8185602086016133ab565b80840191505092915050565b60006127c4826132d3565b6127ce81856132fa565b93506127de8185602086016133ab565b6127e7816133de565b840191505092915050565b60006127fd826132d3565b612807818561330b565b93506128178185602086016133ab565b80840191505092915050565b6000815460018116600081146128405760018114612865576128a9565b607f6002830416612851818761330b565b955060ff19831686528086019350506128a9565b60028204612873818761330b565b955061287e856132b3565b60005b828110156128a057815481890152600182019150602081019050612881565b82880195505050505b505092915050565b60006128be6022836132fa565b91507f456e756d657261626c655365743a20696e646578206f7574206f6620626f756e60008301527f64730000000000000000000000000000000000000000000000000000000000006020830152604082019050919050565b60006129246017836132fa565b91507f70686f746f5f696420616c7265616479206578697374730000000000000000006000830152602082019050919050565b60006129646032836132fa565b91507f4552433732313a207472616e7366657220746f206e6f6e20455243373231526560008301527f63656976657220696d706c656d656e74657200000000000000000000000000006020830152604082019050919050565b60006129ca601c836132fa565b91507f4552433732313a20746f6b656e20616c7265616479206d696e746564000000006000830152602082019050919050565b6000612a0a6024836132fa565b91507f4552433732313a207472616e7366657220746f20746865207a65726f2061646460008301527f72657373000000000000000000000000000000000000000000000000000000006020830152604082019050919050565b6000612a706019836132fa565b91507f4552433732313a20617070726f766520746f2063616c6c6572000000000000006000830152602082019050919050565b6000612ab06014836132fa565b91507f496e636f72726563742076616c75652073656e740000000000000000000000006000830152602082019050919050565b6000612af0602c836132fa565b91507f4552433732313a206f70657261746f7220717565727920666f72206e6f6e657860008301527f697374656e7420746f6b656e00000000000000000000000000000000000000006020830152604082019050919050565b6000612b566038836132fa565b91507f4552433732313a20617070726f76652063616c6c6572206973206e6f74206f7760008301527f6e6572206e6f7220617070726f76656420666f7220616c6c00000000000000006020830152604082019050919050565b6000612bbc602a836132fa565b91507f4552433732313a2062616c616e636520717565727920666f7220746865207a6560008301527f726f2061646472657373000000000000000000000000000000000000000000006020830152604082019050919050565b6000612c226022836132fa565b91507f456e756d657261626c654d61703a20696e646578206f7574206f6620626f756e60008301527f64730000000000000000000000000000000000000000000000000000000000006020830152604082019050919050565b6000612c886020836132fa565b91507f4552433732313a206d696e7420746f20746865207a65726f20616464726573736000830152602082019050919050565b6000612cc8602c836132fa565b91507f4552433732313a20617070726f76656420717565727920666f72206e6f6e657860008301527f697374656e7420746f6b656e00000000000000000000000000000000000000006020830152604082019050919050565b6000612d2e6029836132fa565b91507f4552433732313a207472616e73666572206f6620746f6b656e2074686174206960008301527f73206e6f74206f776e00000000000000000000000000000000000000000000006020830152604082019050919050565b6000612d94602f836132fa565b91507f4552433732314d657461646174613a2055524920717565727920666f72206e6f60008301527f6e6578697374656e7420746f6b656e00000000000000000000000000000000006020830152604082019050919050565b6000612dfa6021836132fa565b91507f4552433732313a20617070726f76616c20746f2063757272656e74206f776e6560008301527f72000000000000000000000000000000000000000000000000000000000000006020830152604082019050919050565b6000612e606031836132fa565b91507f4552433732313a207472616e736665722063616c6c6572206973206e6f74206f60008301527f776e6572206e6f7220617070726f7665640000000000000000000000000000006020830152604082019050919050565b612ec281613392565b82525050565b6000612ed48284612788565b915081905092915050565b6000612eeb8285612823565b9150612ef782846127f2565b91508190509392505050565b6000602082019050612f186000830184612731565b92915050565b6000608082019050612f336000830187612722565b612f406020830186612731565b612f4d6040830185612eb9565b8181036060830152612f5f818461274f565b905095945050505050565b6000602082019050612f7f6000830184612740565b92915050565b60006020820190508181036000830152612f9f81846127b9565b905092915050565b60006020820190508181036000830152612fc0816128b1565b9050919050565b60006020820190508181036000830152612fe081612917565b9050919050565b6000602082019050818103600083015261300081612957565b9050919050565b60006020820190508181036000830152613020816129bd565b9050919050565b60006020820190508181036000830152613040816129fd565b9050919050565b6000602082019050818103600083015261306081612a63565b9050919050565b6000602082019050818103600083015261308081612aa3565b9050919050565b600060208201905081810360008301526130a081612ae3565b9050919050565b600060208201905081810360008301526130c081612b49565b9050919050565b600060208201905081810360008301526130e081612baf565b9050919050565b6000602082019050818103600083015261310081612c15565b9050919050565b6000602082019050818103600083015261312081612c7b565b9050919050565b6000602082019050818103600083015261314081612cbb565b9050919050565b6000602082019050818103600083015261316081612d21565b9050919050565b6000602082019050818103600083015261318081612d87565b9050919050565b600060208201905081810360008301526131a081612ded565b9050919050565b600060208201905081810360008301526131c081612e53565b9050919050565b60006020820190506131dc6000830184612eb9565b92915050565b60006080820190506131f76000830187612eb9565b818103602083015261320981866127b9565b90506132186040830185612eb9565b6132256060830184612740565b95945050505050565b6000604051905081810181811067ffffffffffffffff8211171561325157600080fd5b8060405250919050565b600067ffffffffffffffff82111561327257600080fd5b601f19601f8301169050602081019050919050565b600067ffffffffffffffff82111561329e57600080fd5b601f19601f8301169050602081019050919050565b60008190508160005260206000209050919050565b600081519050919050565b600081519050919050565b600082825260208201905092915050565b600081905092915050565b600082825260208201905092915050565b600081905092915050565b600061332182613372565b9050919050565b600061333382613372565b9050919050565b60008115159050919050565b60007fffffffff0000000000000000000000000000000000000000000000000000000082169050919050565b600073ffffffffffffffffffffffffffffffffffffffff82169050919050565b6000819050919050565b82818337600083830152505050565b60005b838110156133c95780820151818401526020810190506133ae565b838111156133d8576000848401525b50505050565b6000601f19601f8301169050919050565b6133f881613316565b811461340357600080fd5b50565b61340f8161333a565b811461341a57600080fd5b50565b61342681613346565b811461343157600080fd5b50565b61343d81613392565b811461344857600080fd5b5056fe4552433732313a206f776e657220717565727920666f72206e6f6e6578697374656e7420746f6b656ea2646970667358221220a6e669522efbfaadf64cd00098dde9b28068541ab300c397a3849abd912e629864736f6c63430006090033",
  "immutableReferences": {},
  "source": "\r\n// SPDX-License-Identifier: MIT\r\n\r\npragma solidity ^0.6.0;\r\npragma experimental ABIEncoderV2;\r\n\r\nimport \"./ERC721.sol\";\r\n\r\ncontract photoToken is ERC721 {\r\n\r\n\tstruct Photo\r\n\t{\r\n        uint photo_id;\r\n        string name;\r\n        uint size;\r\n        bool originality;\r\n\t}\r\n\r\n\tPhoto[] public photos;\r\n\r\n    mapping(address => uint) etherBalance;\r\n\r\n\tmapping(uint => bool) _photoExists;\r\n\r\n\tconstructor () ERC721(\"Photo\",\"PIC\") public {\r\n\t}\r\n\r\n//Mints a token for the caller.\r\n\tfunction mint(Photo memory _photo) public {\r\n\t\trequire(_photoExists[_photo.photo_id] == false, \"photo_id already exists\");\r\n\t\tphotos.push(_photo);\r\n\t\t_photoExists[_photo.photo_id] = true;\r\n\t\t_mint(msg.sender, _photo.photo_id);\r\n\t}\r\n\r\n    function ownerof(uint256 tokenId) public view returns (address) {\r\n        return ownerOf(tokenId);\r\n    }\r\n\r\n    function balanceof(address owner) public view returns (uint256) {\r\n        return balanceOf(owner);\r\n    }\r\n\r\n//A function that can set value for the unique item in a standardized way. So far limited to a single token.\r\n\tfunction look_up(Photo memory _photo) public pure returns(uint) {\r\n        uint value = 0;\r\n        if (_photo.size >= 0 && _photo.size <= 10) {value = 50;}\r\n        else if (_photo.size > 10 && _photo.size <= 20) {value = 100;}\r\n        else if (_photo.size > 20 ) {value = 200;}\r\n        else value = 0;\r\n        if (_photo.originality == true) {value = value * 2;}\r\n        return value;\r\n    }\r\n\r\n//This function should be called by the buyer.\r\n    function exchange(Photo memory _photo,uint _amount) public payable returns(bool){\r\n        uint requiredValue = look_up(_photo);\r\n        require(_amount==requiredValue,\"Incorrect value sent\");\r\n        address photoOwner = ownerOf(_photo.photo_id);\r\n        etherBalance[photoOwner] += _amount;\r\n        etherBalance[photoOwner] -= _amount;\r\n        _transfer(photoOwner,msg.sender,_photo.photo_id);\r\n        return true;\r\n    }\r\n\r\n}",
  "sourcePath": "Z:\\BD\\Smart Contract Essentials\\assignment\\trial2\\contracts\\photo_base.sol",
  "compiler": {
    "name": "solc",
    "version": "0.6.9+commit.3e3065ac.Emscripten.clang"
  },
  "schemaVersion": "3.2.0",
  "updatedAt": "2020-06-09T01:30:24.057Z",
  "devdoc": {
    "methods": {
      "approve(address,uint256)": {
        "details": "Approves another address to transfer the given token ID The zero address indicates there is no approved address. There can only be one approved address per token at a given time. Can only be called by the token owner or an approved operator.",
        "params": {
          "to": "address to be approved for the given token ID",
          "tokenId": "uint256 ID of the token to be approved"
        }
      },
      "balanceOf(address)": {
        "details": "Gets the balance of the specified address.",
        "params": {
          "owner": "address to query the balance of"
        },
        "returns": {
          "_0": "uint256 representing the amount owned by the passed address"
        }
      },
      "baseURI()": {
        "details": "Returns the base URI set via {_setBaseURI}. This will be automatically added as a prefix in {tokenURI} to each token's URI, or to the token ID if no specific URI is set for that token ID."
      },
      "getApproved(uint256)": {
        "details": "Gets the approved address for a token ID, or zero if no address set Reverts if the token ID does not exist.",
        "params": {
          "tokenId": "uint256 ID of the token to query the approval of"
        },
        "returns": {
          "_0": "address currently approved for the given token ID"
        }
      },
      "isApprovedForAll(address,address)": {
        "details": "Tells whether an operator is approved by a given owner.",
        "params": {
          "operator": "operator address which you want to query the approval of",
          "owner": "owner address which you want to query the approval of"
        },
        "returns": {
          "_0": "bool whether the given operator is approved by the given owner"
        }
      },
      "name()": {
        "details": "Gets the token name.",
        "returns": {
          "_0": "string representing the token name"
        }
      },
      "ownerOf(uint256)": {
        "details": "Gets the owner of the specified token ID.",
        "params": {
          "tokenId": "uint256 ID of the token to query the owner of"
        },
        "returns": {
          "_0": "address currently marked as the owner of the given token ID"
        }
      },
      "safeTransferFrom(address,address,uint256)": {
        "details": "Safely transfers the ownership of a given token ID to another address If the target address is a contract, it must implement {IERC721Receiver-onERC721Received}, which is called upon a safe transfer, and return the magic value `bytes4(keccak256(\"onERC721Received(address,address,uint256,bytes)\"))`; otherwise, the transfer is reverted. Requires the msg.sender to be the owner, approved, or operator",
        "params": {
          "from": "current owner of the token",
          "to": "address to receive the ownership of the given token ID",
          "tokenId": "uint256 ID of the token to be transferred"
        }
      },
      "safeTransferFrom(address,address,uint256,bytes)": {
        "details": "Safely transfers the ownership of a given token ID to another address If the target address is a contract, it must implement {IERC721Receiver-onERC721Received}, which is called upon a safe transfer, and return the magic value `bytes4(keccak256(\"onERC721Received(address,address,uint256,bytes)\"))`; otherwise, the transfer is reverted. Requires the _msgSender() to be the owner, approved, or operator",
        "params": {
          "_data": "bytes data to send along with a safe transfer check",
          "from": "current owner of the token",
          "to": "address to receive the ownership of the given token ID",
          "tokenId": "uint256 ID of the token to be transferred"
        }
      },
      "setApprovalForAll(address,bool)": {
        "details": "Sets or unsets the approval of a given operator An operator is allowed to transfer all tokens of the sender on their behalf.",
        "params": {
          "approved": "representing the status of the approval to be set",
          "operator": "operator address to set the approval"
        }
      },
      "supportsInterface(bytes4)": {
        "details": "See {IERC165-supportsInterface}. Time complexity O(1), guaranteed to always use less than 30 000 gas."
      },
      "symbol()": {
        "details": "Gets the token symbol.",
        "returns": {
          "_0": "string representing the token symbol"
        }
      },
      "tokenByIndex(uint256)": {
        "details": "Gets the token ID at a given index of all the tokens in this contract Reverts if the index is greater or equal to the total number of tokens.",
        "params": {
          "index": "uint256 representing the index to be accessed of the tokens list"
        },
        "returns": {
          "_0": "uint256 token ID at the given index of the tokens list"
        }
      },
      "tokenOfOwnerByIndex(address,uint256)": {
        "details": "Gets the token ID at a given index of the tokens list of the requested owner.",
        "params": {
          "index": "uint256 representing the index to be accessed of the requested tokens list",
          "owner": "address owning the tokens list to be accessed"
        },
        "returns": {
          "_0": "uint256 token ID at the given index of the tokens list owned by the requested address"
        }
      },
      "tokenURI(uint256)": {
        "details": "Returns the URI for a given token ID. May return an empty string. If a base URI is set (via {_setBaseURI}), it is added as a prefix to the token's own URI (via {_setTokenURI}). If there is a base URI but no token URI, the token's ID will be used as its URI when appending it to the base URI. This pattern for autogenerated token URIs can lead to large gas savings. .Examples |=== |`_setBaseURI()` |`_setTokenURI()` |`tokenURI()` | \"\" | \"\" | \"\" | \"\" | \"token.uri/123\" | \"token.uri/123\" | \"token.uri/\" | \"123\" | \"token.uri/123\" | \"token.uri/\" | \"\" | \"token.uri/<tokenId>\" |=== Requirements: - `tokenId` must exist."
      },
      "totalSupply()": {
        "details": "Gets the total amount of tokens stored by the contract.",
        "returns": {
          "_0": "uint256 representing the total amount of tokens"
        }
      },
      "transferFrom(address,address,uint256)": {
        "details": "Transfers the ownership of a given token ID to another address. Usage of this method is discouraged, use {safeTransferFrom} whenever possible. Requires the msg.sender to be the owner, approved, or operator.",
        "params": {
          "from": "current owner of the token",
          "to": "address to receive the ownership of the given token ID",
          "tokenId": "uint256 ID of the token to be transferred"
        }
      }
    }
  },
  "userdoc": {
    "methods": {}
  }
}