{
  "contractName": "photoToken",
  "abi": [
    {
      "inputs": [],
      "stateMutability": "nonpayable",
      "type": "constructor"
    },
    {
      "anonymous": false,
      "inputs": [
        {
          "indexed": true,
          "internalType": "address",
          "name": "owner",
          "type": "address"
        },
        {
          "indexed": true,
          "internalType": "address",
          "name": "approved",
          "type": "address"
        },
        {
          "indexed": true,
          "internalType": "uint256",
          "name": "tokenId",
          "type": "uint256"
        }
      ],
      "name": "Approval",
      "type": "event"
    },
    {
      "anonymous": false,
      "inputs": [
        {
          "indexed": true,
          "internalType": "address",
          "name": "owner",
          "type": "address"
        },
        {
          "indexed": true,
          "internalType": "address",
          "name": "operator",
          "type": "address"
        },
        {
          "indexed": false,
          "internalType": "bool",
          "name": "approved",
          "type": "bool"
        }
      ],
      "name": "ApprovalForAll",
      "type": "event"
    },
    {
      "anonymous": false,
      "inputs": [
        {
          "indexed": true,
          "internalType": "address",
          "name": "from",
          "type": "address"
        },
        {
          "indexed": true,
          "internalType": "address",
          "name": "to",
          "type": "address"
        },
        {
          "indexed": true,
          "internalType": "uint256",
          "name": "tokenId",
          "type": "uint256"
        }
      ],
      "name": "Transfer",
      "type": "event"
    },
    {
      "inputs": [
        {
          "internalType": "address",
          "name": "to",
          "type": "address"
        },
        {
          "internalType": "uint256",
          "name": "tokenId",
          "type": "uint256"
        }
      ],
      "name": "approve",
      "outputs": [],
      "stateMutability": "nonpayable",
      "type": "function"
    },
    {
      "inputs": [
        {
          "internalType": "address",
          "name": "owner",
          "type": "address"
        }
      ],
      "name": "balanceOf",
      "outputs": [
        {
          "internalType": "uint256",
          "name": "",
          "type": "uint256"
        }
      ],
      "stateMutability": "view",
      "type": "function"
    },
    {
      "inputs": [],
      "name": "baseURI",
      "outputs": [
        {
          "internalType": "string",
          "name": "",
          "type": "string"
        }
      ],
      "stateMutability": "view",
      "type": "function"
    },
    {
      "inputs": [
        {
          "internalType": "uint256",
          "name": "tokenId",
          "type": "uint256"
        }
      ],
      "name": "getApproved",
      "outputs": [
        {
          "internalType": "address",
          "name": "",
          "type": "address"
        }
      ],
      "stateMutability": "view",
      "type": "function"
    },
    {
      "inputs": [
        {
          "internalType": "address",
          "name": "owner",
          "type": "address"
        },
        {
          "internalType": "address",
          "name": "operator",
          "type": "address"
        }
      ],
      "name": "isApprovedForAll",
      "outputs": [
        {
          "internalType": "bool",
          "name": "",
          "type": "bool"
        }
      ],
      "stateMutability": "view",
      "type": "function"
    },
    {
      "inputs": [],
      "name": "name",
      "outputs": [
        {
          "internalType": "string",
          "name": "",
          "type": "string"
        }
      ],
      "stateMutability": "view",
      "type": "function"
    },
    {
      "inputs": [
        {
          "internalType": "uint256",
          "name": "tokenId",
          "type": "uint256"
        }
      ],
      "name": "ownerOf",
      "outputs": [
        {
          "internalType": "address",
          "name": "",
          "type": "address"
        }
      ],
      "stateMutability": "view",
      "type": "function"
    },
    {
      "inputs": [
        {
          "internalType": "uint256",
          "name": "",
          "type": "uint256"
        }
      ],
      "name": "photos",
      "outputs": [
        {
          "internalType": "uint256",
          "name": "photo_id",
          "type": "uint256"
        },
        {
          "internalType": "string",
          "name": "name",
          "type": "string"
        },
        {
          "internalType": "uint256",
          "name": "size",
          "type": "uint256"
        },
        {
          "internalType": "bool",
          "name": "originality",
          "type": "bool"
        }
      ],
      "stateMutability": "view",
      "type": "function"
    },
    {
      "inputs": [
        {
          "internalType": "address",
          "name": "from",
          "type": "address"
        },
        {
          "internalType": "address",
          "name": "to",
          "type": "address"
        },
        {
          "internalType": "uint256",
          "name": "tokenId",
          "type": "uint256"
        }
      ],
      "name": "safeTransferFrom",
      "outputs": [],
      "stateMutability": "nonpayable",
      "type": "function"
    },
    {
      "inputs": [
        {
          "internalType": "address",
          "name": "from",
          "type": "address"
        },
        {
          "internalType": "address",
          "name": "to",
          "type": "address"
        },
        {
          "internalType": "uint256",
          "name": "tokenId",
          "type": "uint256"
        },
        {
          "internalType": "bytes",
          "name": "_data",
          "type": "bytes"
        }
      ],
      "name": "safeTransferFrom",
      "outputs": [],
      "stateMutability": "nonpayable",
      "type": "function"
    },
    {
      "inputs": [
        {
          "internalType": "address",
          "name": "operator",
          "type": "address"
        },
        {
          "internalType": "bool",
          "name": "approved",
          "type": "bool"
        }
      ],
      "name": "setApprovalForAll",
      "outputs": [],
      "stateMutability": "nonpayable",
      "type": "function"
    },
    {
      "inputs": [
        {
          "internalType": "bytes4",
          "name": "interfaceId",
          "type": "bytes4"
        }
      ],
      "name": "supportsInterface",
      "outputs": [
        {
          "internalType": "bool",
          "name": "",
          "type": "bool"
        }
      ],
      "stateMutability": "view",
      "type": "function"
    },
    {
      "inputs": [],
      "name": "symbol",
      "outputs": [
        {
          "internalType": "string",
          "name": "",
          "type": "string"
        }
      ],
      "stateMutability": "view",
      "type": "function"
    },
    {
      "inputs": [
        {
          "internalType": "uint256",
          "name": "index",
          "type": "uint256"
        }
      ],
      "name": "tokenByIndex",
      "outputs": [
        {
          "internalType": "uint256",
          "name": "",
          "type": "uint256"
        }
      ],
      "stateMutability": "view",
      "type": "function"
    },
    {
      "inputs": [
        {
          "internalType": "address",
          "name": "owner",
          "type": "address"
        },
        {
          "internalType": "uint256",
          "name": "index",
          "type": "uint256"
        }
      ],
      "name": "tokenOfOwnerByIndex",
      "outputs": [
        {
          "internalType": "uint256",
          "name": "",
          "type": "uint256"
        }
      ],
      "stateMutability": "view",
      "type": "function"
    },
    {
      "inputs": [
        {
          "internalType": "uint256",
          "name": "tokenId",
          "type": "uint256"
        }
      ],
      "name": "tokenURI",
      "outputs": [
        {
          "internalType": "string",
          "name": "",
          "type": "string"
        }
      ],
      "stateMutability": "view",
      "type": "function"
    },
    {
      "inputs": [],
      "name": "totalSupply",
      "outputs": [
        {
          "internalType": "uint256",
          "name": "",
          "type": "uint256"
        }
      ],
      "stateMutability": "view",
      "type": "function"
    },
    {
      "inputs": [
        {
          "internalType": "address",
          "name": "from",
          "type": "address"
        },
        {
          "internalType": "address",
          "name": "to",
          "type": "address"
        },
        {
          "internalType": "uint256",
          "name": "tokenId",
          "type": "uint256"
        }
      ],
      "name": "transferFrom",
      "outputs": [],
      "stateMutability": "nonpayable",
      "type": "function"
    },
    {
      "inputs": [
        {
          "components": [
            {
              "internalType": "uint256",
              "name": "photo_id",
              "type": "uint256"
            },
            {
              "internalType": "string",
              "name": "name",
              "type": "string"
            },
            {
              "internalType": "uint256",
              "name": "size",
              "type": "uint256"
            },
            {
              "internalType": "bool",
              "name": "originality",
              "type": "bool"
            }
          ],
          "internalType": "struct photoToken.Photo",
          "name": "_photo",
          "type": "tuple"
        }
      ],
      "name": "mint",
      "outputs": [],
      "stateMutability": "nonpayable",
      "type": "function"
    },
    {
      "inputs": [
        {
          "components": [
            {
              "internalType": "uint256",
              "name": "photo_id",
              "type": "uint256"
            },
            {
              "internalType": "string",
              "name": "name",
              "type": "string"
            },
            {
              "internalType": "uint256",
              "name": "size",
              "type": "uint256"
            },
            {
              "internalType": "bool",
              "name": "originality",
              "type": "bool"
            }
          ],
          "internalType": "struct photoToken.Photo",
          "name": "_photo",
          "type": "tuple"
        }
      ],
      "name": "look_up",
      "outputs": [
        {
          "internalType": "uint256",
          "name": "",
          "type": "uint256"
        }
      ],
      "stateMutability": "pure",
      "type": "function"
    },
    {
      "inputs": [
        {
          "components": [
            {
              "internalType": "uint256",
              "name": "photo_id",
              "type": "uint256"
            },
            {
              "internalType": "string",
              "name": "name",
              "type": "string"
            },
            {
              "internalType": "uint256",
              "name": "size",
              "type": "uint256"
            },
            {
              "internalType": "bool",
              "name": "originality",
              "type": "bool"
            }
          ],
          "internalType": "struct photoToken.Photo",
          "name": "_photo",
          "type": "tuple"
        },
        {
          "internalType": "uint256",
          "name": "_amount",
          "type": "uint256"
        }
      ],
      "name": "exchange",
      "outputs": [
        {
          "internalType": "bool",
          "name": "",
          "type": "bool"
        }
      ],
      "stateMutability": "payable",
      "type": "function"
    }
  ],
  "bytecode": "0x60806040523480156200001157600080fd5b506040518060400160405280600581526020017f50686f746f0000000000000000000000000000000000000000000000000000008152506040518060400160405280600381526020017f5049430000000000000000000000000000000000000000000000000000000000815250620000966301ffc9a760e01b6200011860201b60201c565b8160069080519060200190620000ae929190620001f0565b508060079080519060200190620000c7929190620001f0565b50620000e06380ac58cd60e01b6200011860201b60201c565b620000f8635b5e139f60e01b6200011860201b60201c565b6200011063780e9d6360e01b6200011860201b60201c565b505062000314565b63ffffffff60e01b817bffffffffffffffffffffffffffffffffffffffffffffffffffffffff1916141562000184576040517f08c379a00000000000000000000000000000000000000000000000000000000081526004016200017b90620002e1565b60405180910390fd5b6001600080837bffffffffffffffffffffffffffffffffffffffffffffffffffffffff19167bffffffffffffffffffffffffffffffffffffffffffffffffffffffff1916815260200190815260200160002060006101000a81548160ff02191690831515021790555050565b828054600181600116156101000203166002900490600052602060002090601f016020900481019282601f106200023357805160ff191683800117855562000264565b8280016001018555821562000264579182015b828111156200026357825182559160200191906001019062000246565b5b50905062000273919062000277565b5090565b6200029c91905b80821115620002985760008160009055506001016200027e565b5090565b90565b6000620002ae601c8362000303565b91507f4552433136353a20696e76616c696420696e74657266616365206964000000006000830152602082019050919050565b60006020820190508181036000830152620002fc816200029f565b9050919050565b600082825260208201905092915050565b61335280620003246000396000f3fe60806040526004361061012a5760003560e01c80636c0360eb116100ab578063af2a5d6f1161006f578063af2a5d6f14610416578063b88d4fde14610456578063c87b56dd1461047f578063d8b2d714146104bc578063e985e9c5146104ec578063ee21e10b146105295761012a565b80636c0360eb1461033157806370a082311461035c57806395d89b41146103995780639d6ff9d0146103c4578063a22cb465146103ed5761012a565b806323b872dd116100f257806323b872dd146102285780632f745c591461025157806342842e0e1461028e5780634f6ccce7146102b75780636352211e146102f45761012a565b806301ffc9a71461012f57806306fdde031461016c578063081812fc14610197578063095ea7b3146101d457806318160ddd146101fd575b600080fd5b34801561013b57600080fd5b50610156600480360381019061015191906124ba565b610566565b6040516101639190612e12565b60405180910390f35b34801561017857600080fd5b506101816105cd565b60405161018e9190612e2d565b60405180910390f35b3480156101a357600080fd5b506101be60048036038101906101b991906125a1565b61066f565b6040516101cb9190612dab565b60405180910390f35b3480156101e057600080fd5b506101fb60048036038101906101f6919061247e565b6106f4565b005b34801561020957600080fd5b5061021261080c565b60405161021f919061306f565b60405180910390f35b34801561023457600080fd5b5061024f600480360381019061024a9190612378565b61081d565b005b34801561025d57600080fd5b506102786004803603810190610273919061247e565b61087d565b604051610285919061306f565b60405180910390f35b34801561029a57600080fd5b506102b560048036038101906102b09190612378565b6108d8565b005b3480156102c357600080fd5b506102de60048036038101906102d991906125a1565b6108f8565b6040516102eb919061306f565b60405180910390f35b34801561030057600080fd5b5061031b600480360381019061031691906125a1565b61091b565b6040516103289190612dab565b60405180910390f35b34801561033d57600080fd5b50610346610952565b6040516103539190612e2d565b60405180910390f35b34801561036857600080fd5b50610383600480360381019061037e9190612313565b6109f4565b604051610390919061306f565b60405180910390f35b3480156103a557600080fd5b506103ae610ab3565b6040516103bb9190612e2d565b60405180910390f35b3480156103d057600080fd5b506103eb60048036038101906103e6919061250c565b610b55565b005b3480156103f957600080fd5b50610414600480360381019061040f9190612442565b610c80565b005b34801561042257600080fd5b5061043d600480360381019061043891906125a1565b610e01565b60405161044d949392919061308a565b60405180910390f35b34801561046257600080fd5b5061047d600480360381019061047891906123c7565b610ee3565b005b34801561048b57600080fd5b506104a660048036038101906104a191906125a1565b610f45565b6040516104b39190612e2d565b60405180910390f35b6104d660048036038101906104d1919061254d565b6110d0565b6040516104e39190612e12565b60405180910390f35b3480156104f857600080fd5b50610513600480360381019061050e919061233c565b611142565b6040516105209190612e12565b60405180910390f35b34801561053557600080fd5b50610550600480360381019061054b919061250c565b6111d6565b60405161055d919061306f565b60405180910390f35b6000806000837bffffffffffffffffffffffffffffffffffffffffffffffffffffffff19167bffffffffffffffffffffffffffffffffffffffffffffffffffffffff1916815260200190815260200160002060009054906101000a900460ff169050919050565b606060068054600181600116156101000203166002900480601f0160208091040260200160405190810160405280929190818152602001828054600181600116156101000203166002900480156106655780601f1061063a57610100808354040283529160200191610665565b820191906000526020600020905b81548152906001019060200180831161064857829003601f168201915b5050505050905090565b600061067a8261126a565b6106b9576040517f08c379a00000000000000000000000000000000000000000000000000000000081526004016106b090612fcf565b60405180910390fd5b6004600083815260200190815260200160002060009054906101000a900473ffffffffffffffffffffffffffffffffffffffff169050919050565b60006106ff8261091b565b90508073ffffffffffffffffffffffffffffffffffffffff168373ffffffffffffffffffffffffffffffffffffffff161415610770576040517f08c379a00000000000000000000000000000000000000000000000000000000081526004016107679061302f565b60405180910390fd5b8073ffffffffffffffffffffffffffffffffffffffff1661078f611287565b73ffffffffffffffffffffffffffffffffffffffff1614806107be57506107bd816107b8611287565b611142565b5b6107fd576040517f08c379a00000000000000000000000000000000000000000000000000000000081526004016107f490612f4f565b60405180910390fd5b610807838361128f565b505050565b60006108186002611348565b905090565b61082e610828611287565b8261135d565b61086d576040517f08c379a00000000000000000000000000000000000000000000000000000000081526004016108649061304f565b60405180910390fd5b61087883838361143b565b505050565b60006108d082600160008673ffffffffffffffffffffffffffffffffffffffff1673ffffffffffffffffffffffffffffffffffffffff16815260200190815260200160002061165290919063ffffffff16565b905092915050565b6108f383838360405180602001604052806000815250610ee3565b505050565b60008061090f83600261166c90919063ffffffff16565b50905080915050919050565b600061094b826040518060600160405280602981526020016132f460299139600261169b9092919063ffffffff16565b9050919050565b606060098054600181600116156101000203166002900480601f0160208091040260200160405190810160405280929190818152602001828054600181600116156101000203166002900480156109ea5780601f106109bf576101008083540402835291602001916109ea565b820191906000526020600020905b8154815290600101906020018083116109cd57829003601f168201915b5050505050905090565b60008073ffffffffffffffffffffffffffffffffffffffff168273ffffffffffffffffffffffffffffffffffffffff161415610a65576040517f08c379a0000000000000000000000000000000000000000000000000000000008152600401610a5c90612f6f565b60405180910390fd5b610aac600160008473ffffffffffffffffffffffffffffffffffffffff1673ffffffffffffffffffffffffffffffffffffffff1681526020019081526020016000206116ba565b9050919050565b606060078054600181600116156101000203166002900480601f016020809104026020016040519081016040528092919081815260200182805460018160011615610100020316600290048015610b4b5780601f10610b2057610100808354040283529160200191610b4b565b820191906000526020600020905b815481529060010190602001808311610b2e57829003601f168201915b5050505050905090565b60001515600b60008360000151815260200190815260200160002060009054906101000a900460ff16151514610bc0576040517f08c379a0000000000000000000000000000000000000000000000000000000008152600401610bb790612e6f565b60405180910390fd5b600a819080600181540180825580915050600190039060005260206000209060040201600090919091909150600082015181600001556020820151816001019080519060200190610c129291906120d1565b506040820151816002015560608201518160030160006101000a81548160ff02191690831515021790555050506001600b60008360000151815260200190815260200160002060006101000a81548160ff021916908315150217905550610c7d3382600001516116cf565b50565b610c88611287565b73ffffffffffffffffffffffffffffffffffffffff168273ffffffffffffffffffffffffffffffffffffffff161415610cf6576040517f08c379a0000000000000000000000000000000000000000000000000000000008152600401610ced90612eef565b60405180910390fd5b8060056000610d03611287565b73ffffffffffffffffffffffffffffffffffffffff1673ffffffffffffffffffffffffffffffffffffffff16815260200190815260200160002060008473ffffffffffffffffffffffffffffffffffffffff1673ffffffffffffffffffffffffffffffffffffffff16815260200190815260200160002060006101000a81548160ff0219169083151502179055508173ffffffffffffffffffffffffffffffffffffffff16610db0611287565b73ffffffffffffffffffffffffffffffffffffffff167f17307eab39ab6107e8899845ad3d59bd9653f200f220920489ca2b5937696c3183604051610df59190612e12565b60405180910390a35050565b600a8181548110610e0e57fe5b9060005260206000209060040201600091509050806000015490806001018054600181600116156101000203166002900480601f016020809104026020016040519081016040528092919081815260200182805460018160011615610100020316600290048015610ec05780601f10610e9557610100808354040283529160200191610ec0565b820191906000526020600020905b815481529060010190602001808311610ea357829003601f168201915b5050505050908060020154908060030160009054906101000a900460ff16905084565b610ef4610eee611287565b8361135d565b610f33576040517f08c379a0000000000000000000000000000000000000000000000000000000008152600401610f2a9061304f565b60405180910390fd5b610f3f8484848461185d565b50505050565b6060610f508261126a565b610f8f576040517f08c379a0000000000000000000000000000000000000000000000000000000008152600401610f869061300f565b60405180910390fd5b6060600860008481526020019081526020016000208054600181600116156101000203166002900480601f0160208091040260200160405190810160405280929190818152602001828054600181600116156101000203166002900480156110385780601f1061100d57610100808354040283529160200191611038565b820191906000526020600020905b81548152906001019060200180831161101b57829003601f168201915b5050505050905060006009805460018160011615610100020316600290049050141561106757809150506110cb565b60008151111561109c57600981604051602001611085929190612d87565b6040516020818303038152906040529150506110cb565b60096110a7846118b9565b6040516020016110b8929190612d87565b6040516020818303038152906040529150505b919050565b6000806110dc846111d6565b9050808314611120576040517f08c379a000000000000000000000000000000000000000000000000000000000815260040161111790612f0f565b60405180910390fd5b61113b611130856000015161091b565b33866000015161143b565b5092915050565b6000600560008473ffffffffffffffffffffffffffffffffffffffff1673ffffffffffffffffffffffffffffffffffffffff16815260200190815260200160002060008373ffffffffffffffffffffffffffffffffffffffff1673ffffffffffffffffffffffffffffffffffffffff16815260200190815260200160002060009054906101000a900460ff16905092915050565b6000806000905060008360400151101580156111f75750600a836040015111155b156112055760329050611249565b600a836040015111801561121e57506014836040015111155b1561122c5760649050611248565b6014836040015111156112425760c89050611247565b600090505b5b5b60011515836060015115151415611261576002810290505b80915050919050565b6000611280826002611a0090919063ffffffff16565b9050919050565b600033905090565b816004600083815260200190815260200160002060006101000a81548173ffffffffffffffffffffffffffffffffffffffff021916908373ffffffffffffffffffffffffffffffffffffffff160217905550808273ffffffffffffffffffffffffffffffffffffffff166113028361091b565b73ffffffffffffffffffffffffffffffffffffffff167f8c5be1e5ebec7d5bd14f71427d1e84f3dd0314c0f7b2291e5b200ac8c7c3b92560405160405180910390a45050565b600061135682600001611a1a565b9050919050565b60006113688261126a565b6113a7576040517f08c379a000000000000000000000000000000000000000000000000000000000815260040161139e90612f2f565b60405180910390fd5b60006113b28361091b565b90508073ffffffffffffffffffffffffffffffffffffffff168473ffffffffffffffffffffffffffffffffffffffff16148061142157508373ffffffffffffffffffffffffffffffffffffffff166114098461066f565b73ffffffffffffffffffffffffffffffffffffffff16145b8061143257506114318185611142565b5b91505092915050565b8273ffffffffffffffffffffffffffffffffffffffff1661145b8261091b565b73ffffffffffffffffffffffffffffffffffffffff16146114b1576040517f08c379a00000000000000000000000000000000000000000000000000000000081526004016114a890612fef565b60405180910390fd5b600073ffffffffffffffffffffffffffffffffffffffff168273ffffffffffffffffffffffffffffffffffffffff161415611521576040517f08c379a000000000000000000000000000000000000000000000000000000000815260040161151890612ecf565b60405180910390fd5b61152c838383611a2b565b61153760008261128f565b61158881600160008673ffffffffffffffffffffffffffffffffffffffff1673ffffffffffffffffffffffffffffffffffffffff168152602001908152602001600020611a3090919063ffffffff16565b506115da81600160008573ffffffffffffffffffffffffffffffffffffffff1673ffffffffffffffffffffffffffffffffffffffff168152602001908152602001600020611a4a90919063ffffffff16565b506115f181836002611a649092919063ffffffff16565b50808273ffffffffffffffffffffffffffffffffffffffff168473ffffffffffffffffffffffffffffffffffffffff167fddf252ad1be2c89b69c2b068fc378daa952ba7f163c4a11628f55a4df523b3ef60405160405180910390a4505050565b60006116618360000183611a99565b60001c905092915050565b60008060008061167f8660000186611b06565b915091508160001c8160001c8090509350935050509250929050565b60006116ae846000018460001b84611b89565b60001c90509392505050565b60006116c882600001611c1a565b9050919050565b600073ffffffffffffffffffffffffffffffffffffffff168273ffffffffffffffffffffffffffffffffffffffff16141561173f576040517f08c379a000000000000000000000000000000000000000000000000000000000815260040161173690612faf565b60405180910390fd5b6117488161126a565b15611788576040517f08c379a000000000000000000000000000000000000000000000000000000000815260040161177f90612eaf565b60405180910390fd5b61179460008383611a2b565b6117e581600160008573ffffffffffffffffffffffffffffffffffffffff1673ffffffffffffffffffffffffffffffffffffffff168152602001908152602001600020611a4a90919063ffffffff16565b506117fc81836002611a649092919063ffffffff16565b50808273ffffffffffffffffffffffffffffffffffffffff16600073ffffffffffffffffffffffffffffffffffffffff167fddf252ad1be2c89b69c2b068fc378daa952ba7f163c4a11628f55a4df523b3ef60405160405180910390a45050565b61186884848461143b565b61187484848484611c2b565b6118b3576040517f08c379a00000000000000000000000000000000000000000000000000000000081526004016118aa90612e8f565b60405180910390fd5b50505050565b60606000821415611901576040518060400160405280600181526020017f300000000000000000000000000000000000000000000000000000000000000081525090506119fb565b600082905060005b6000821461192b578080600101915050600a828161192357fe5b049150611909565b60608167ffffffffffffffff8111801561194457600080fd5b506040519080825280601f01601f1916602001820160405280156119775781602001600182028036833780820191505090505b50905060006001830390508593505b600084146119f357600a848161199857fe5b0660300160f81b828280600190039350815181106119b257fe5b60200101907effffffffffffffffffffffffffffffffffffffffffffffffffffffffffffff1916908160001a905350600a84816119eb57fe5b049350611986565b819450505050505b919050565b6000611a12836000018360001b611e0c565b905092915050565b600081600001805490509050919050565b505050565b6000611a42836000018360001b611e2f565b905092915050565b6000611a5c836000018360001b611f17565b905092915050565b6000611a90846000018460001b8473ffffffffffffffffffffffffffffffffffffffff1660001b611f87565b90509392505050565b600081836000018054905011611ae4576040517f08c379a0000000000000000000000000000000000000000000000000000000008152600401611adb90612e4f565b60405180910390fd5b826000018281548110611af357fe5b9060005260206000200154905092915050565b60008082846000018054905011611b52576040517f08c379a0000000000000000000000000000000000000000000000000000000008152600401611b4990612f8f565b60405180910390fd5b6000846000018481548110611b6357fe5b906000526020600020906002020190508060000154816001015492509250509250929050565b60008084600101600085815260200190815260200160002054905060008114158390611beb576040517f08c379a0000000000000000000000000000000000000000000000000000000008152600401611be29190612e2d565b60405180910390fd5b50846000016001820381548110611bfe57fe5b9060005260206000209060020201600101549150509392505050565b600081600001805490509050919050565b6000611c4c8473ffffffffffffffffffffffffffffffffffffffff16612063565b611c595760019050611e04565b600060608573ffffffffffffffffffffffffffffffffffffffff1663150b7a0260e01b611c84611287565b898888604051602401611c9a9493929190612dc6565b604051602081830303815290604052907bffffffffffffffffffffffffffffffffffffffffffffffffffffffff19166020820180517bffffffffffffffffffffffffffffffffffffffffffffffffffffffff8381831617835250505050604051611d049190612d70565b6000604051808303816000865af19150503d8060008114611d41576040519150601f19603f3d011682016040523d82523d6000602084013e611d46565b606091505b509150915081611d9e57600081511115611d635780518082602001fd5b6040517f08c379a0000000000000000000000000000000000000000000000000000000008152600401611d9590612e8f565b60405180910390fd5b600081806020019051810190611db491906124e3565b905063150b7a0260e01b7bffffffffffffffffffffffffffffffffffffffffffffffffffffffff1916817bffffffffffffffffffffffffffffffffffffffffffffffffffffffff19161493505050505b949350505050565b600080836001016000848152602001908152602001600020541415905092915050565b60008083600101600084815260200190815260200160002054905060008114611f0b5760006001820390506000600186600001805490500390506000866000018281548110611e7a57fe5b9060005260206000200154905080876000018481548110611e9757fe5b9060005260206000200181905550600183018760010160008381526020019081526020016000208190555086600001805480611ecf57fe5b60019003818190600052602060002001600090559055866001016000878152602001908152602001600020600090556001945050505050611f11565b60009150505b92915050565b6000611f2383836120ae565b611f7c578260000182908060018154018082558091505060019003906000526020600020016000909190919091505582600001805490508360010160008481526020019081526020016000208190555060019050611f81565b600090505b92915050565b600080846001016000858152602001908152602001600020549050600081141561202e5784600001604051806040016040528086815260200185815250908060018154018082558091505060019003906000526020600020906002020160009091909190915060008201518160000155602082015181600101555050846000018054905085600101600086815260200190815260200160002081905550600191505061205c565b8285600001600183038154811061204157fe5b90600052602060002090600202016001018190555060009150505b9392505050565b60008060007fc5d2460186f7233c927e7db2dcc703c0e500b653ca82273b7bfad8045d85a47060001b9050833f91508082141580156120a557506000801b8214155b92505050919050565b600080836001016000848152602001908152602001600020541415905092915050565b828054600181600116156101000203166002900490600052602060002090601f016020900481019282601f1061211257805160ff1916838001178555612140565b82800160010185558215612140579182015b8281111561213f578251825591602001919060010190612124565b5b50905061214d9190612151565b5090565b61217391905b8082111561216f576000816000905550600101612157565b5090565b90565b60008135905061218581613297565b92915050565b60008135905061219a816132ae565b92915050565b6000813590506121af816132c5565b92915050565b6000815190506121c4816132c5565b92915050565b600082601f8301126121db57600080fd5b81356121ee6121e982613103565b6130d6565b9150808252602083016020830185838301111561220a57600080fd5b612215838284613244565b50505092915050565b600082601f83011261222f57600080fd5b813561224261223d8261312f565b6130d6565b9150808252602083016020830185838301111561225e57600080fd5b612269838284613244565b50505092915050565b60006080828403121561228457600080fd5b61228e60806130d6565b9050600061229e848285016122fe565b600083015250602082013567ffffffffffffffff8111156122be57600080fd5b6122ca8482850161221e565b60208301525060406122de848285016122fe565b60408301525060606122f28482850161218b565b60608301525092915050565b60008135905061230d816132dc565b92915050565b60006020828403121561232557600080fd5b600061233384828501612176565b91505092915050565b6000806040838503121561234f57600080fd5b600061235d85828601612176565b925050602061236e85828601612176565b9150509250929050565b60008060006060848603121561238d57600080fd5b600061239b86828701612176565b93505060206123ac86828701612176565b92505060406123bd868287016122fe565b9150509250925092565b600080600080608085870312156123dd57600080fd5b60006123eb87828801612176565b94505060206123fc87828801612176565b935050604061240d878288016122fe565b925050606085013567ffffffffffffffff81111561242a57600080fd5b612436878288016121ca565b91505092959194509250565b6000806040838503121561245557600080fd5b600061246385828601612176565b92505060206124748582860161218b565b9150509250929050565b6000806040838503121561249157600080fd5b600061249f85828601612176565b92505060206124b0858286016122fe565b9150509250929050565b6000602082840312156124cc57600080fd5b60006124da848285016121a0565b91505092915050565b6000602082840312156124f557600080fd5b6000612503848285016121b5565b91505092915050565b60006020828403121561251e57600080fd5b600082013567ffffffffffffffff81111561253857600080fd5b61254484828501612272565b91505092915050565b6000806040838503121561256057600080fd5b600083013567ffffffffffffffff81111561257a57600080fd5b61258685828601612272565b9250506020612597858286016122fe565b9150509250929050565b6000602082840312156125b357600080fd5b60006125c1848285016122fe565b91505092915050565b6125d3816131d0565b82525050565b6125e2816131be565b82525050565b6125f1816131e2565b82525050565b600061260282613170565b61260c8185613186565b935061261c818560208601613253565b61262581613286565b840191505092915050565b600061263b82613170565b6126458185613197565b9350612655818560208601613253565b80840191505092915050565b600061266c8261317b565b61267681856131a2565b9350612686818560208601613253565b61268f81613286565b840191505092915050565b60006126a58261317b565b6126af81856131b3565b93506126bf818560208601613253565b80840191505092915050565b6000815460018116600081146126e8576001811461270d57612751565b607f60028304166126f981876131b3565b955060ff1983168652808601935050612751565b6002820461271b81876131b3565b95506127268561315b565b60005b8281101561274857815481890152600182019150602081019050612729565b82880195505050505b505092915050565b60006127666022836131a2565b91507f456e756d657261626c655365743a20696e646578206f7574206f6620626f756e60008301527f64730000000000000000000000000000000000000000000000000000000000006020830152604082019050919050565b60006127cc6017836131a2565b91507f70686f746f5f696420616c7265616479206578697374730000000000000000006000830152602082019050919050565b600061280c6032836131a2565b91507f4552433732313a207472616e7366657220746f206e6f6e20455243373231526560008301527f63656976657220696d706c656d656e74657200000000000000000000000000006020830152604082019050919050565b6000612872601c836131a2565b91507f4552433732313a20746f6b656e20616c7265616479206d696e746564000000006000830152602082019050919050565b60006128b26024836131a2565b91507f4552433732313a207472616e7366657220746f20746865207a65726f2061646460008301527f72657373000000000000000000000000000000000000000000000000000000006020830152604082019050919050565b60006129186019836131a2565b91507f4552433732313a20617070726f766520746f2063616c6c6572000000000000006000830152602082019050919050565b60006129586014836131a2565b91507f496e636f72726563742076616c75652073656e740000000000000000000000006000830152602082019050919050565b6000612998602c836131a2565b91507f4552433732313a206f70657261746f7220717565727920666f72206e6f6e657860008301527f697374656e7420746f6b656e00000000000000000000000000000000000000006020830152604082019050919050565b60006129fe6038836131a2565b91507f4552433732313a20617070726f76652063616c6c6572206973206e6f74206f7760008301527f6e6572206e6f7220617070726f76656420666f7220616c6c00000000000000006020830152604082019050919050565b6000612a64602a836131a2565b91507f4552433732313a2062616c616e636520717565727920666f7220746865207a6560008301527f726f2061646472657373000000000000000000000000000000000000000000006020830152604082019050919050565b6000612aca6022836131a2565b91507f456e756d657261626c654d61703a20696e646578206f7574206f6620626f756e60008301527f64730000000000000000000000000000000000000000000000000000000000006020830152604082019050919050565b6000612b306020836131a2565b91507f4552433732313a206d696e7420746f20746865207a65726f20616464726573736000830152602082019050919050565b6000612b70602c836131a2565b91507f4552433732313a20617070726f76656420717565727920666f72206e6f6e657860008301527f697374656e7420746f6b656e00000000000000000000000000000000000000006020830152604082019050919050565b6000612bd66029836131a2565b91507f4552433732313a207472616e73666572206f6620746f6b656e2074686174206960008301527f73206e6f74206f776e00000000000000000000000000000000000000000000006020830152604082019050919050565b6000612c3c602f836131a2565b91507f4552433732314d657461646174613a2055524920717565727920666f72206e6f60008301527f6e6578697374656e7420746f6b656e00000000000000000000000000000000006020830152604082019050919050565b6000612ca26021836131a2565b91507f4552433732313a20617070726f76616c20746f2063757272656e74206f776e6560008301527f72000000000000000000000000000000000000000000000000000000000000006020830152604082019050919050565b6000612d086031836131a2565b91507f4552433732313a207472616e736665722063616c6c6572206973206e6f74206f60008301527f776e6572206e6f7220617070726f7665640000000000000000000000000000006020830152604082019050919050565b612d6a8161323a565b82525050565b6000612d7c8284612630565b915081905092915050565b6000612d9382856126cb565b9150612d9f828461269a565b91508190509392505050565b6000602082019050612dc060008301846125d9565b92915050565b6000608082019050612ddb60008301876125ca565b612de860208301866125d9565b612df56040830185612d61565b8181036060830152612e0781846125f7565b905095945050505050565b6000602082019050612e2760008301846125e8565b92915050565b60006020820190508181036000830152612e478184612661565b905092915050565b60006020820190508181036000830152612e6881612759565b9050919050565b60006020820190508181036000830152612e88816127bf565b9050919050565b60006020820190508181036000830152612ea8816127ff565b9050919050565b60006020820190508181036000830152612ec881612865565b9050919050565b60006020820190508181036000830152612ee8816128a5565b9050919050565b60006020820190508181036000830152612f088161290b565b9050919050565b60006020820190508181036000830152612f288161294b565b9050919050565b60006020820190508181036000830152612f488161298b565b9050919050565b60006020820190508181036000830152612f68816129f1565b9050919050565b60006020820190508181036000830152612f8881612a57565b9050919050565b60006020820190508181036000830152612fa881612abd565b9050919050565b60006020820190508181036000830152612fc881612b23565b9050919050565b60006020820190508181036000830152612fe881612b63565b9050919050565b6000602082019050818103600083015261300881612bc9565b9050919050565b6000602082019050818103600083015261302881612c2f565b9050919050565b6000602082019050818103600083015261304881612c95565b9050919050565b6000602082019050818103600083015261306881612cfb565b9050919050565b60006020820190506130846000830184612d61565b92915050565b600060808201905061309f6000830187612d61565b81810360208301526130b18186612661565b90506130c06040830185612d61565b6130cd60608301846125e8565b95945050505050565b6000604051905081810181811067ffffffffffffffff821117156130f957600080fd5b8060405250919050565b600067ffffffffffffffff82111561311a57600080fd5b601f19601f8301169050602081019050919050565b600067ffffffffffffffff82111561314657600080fd5b601f19601f8301169050602081019050919050565b60008190508160005260206000209050919050565b600081519050919050565b600081519050919050565b600082825260208201905092915050565b600081905092915050565b600082825260208201905092915050565b600081905092915050565b60006131c98261321a565b9050919050565b60006131db8261321a565b9050919050565b60008115159050919050565b60007fffffffff0000000000000000000000000000000000000000000000000000000082169050919050565b600073ffffffffffffffffffffffffffffffffffffffff82169050919050565b6000819050919050565b82818337600083830152505050565b60005b83811015613271578082015181840152602081019050613256565b83811115613280576000848401525b50505050565b6000601f19601f8301169050919050565b6132a0816131be565b81146132ab57600080fd5b50565b6132b7816131e2565b81146132c257600080fd5b50565b6132ce816131ee565b81146132d957600080fd5b50565b6132e58161323a565b81146132f057600080fd5b5056fe4552433732313a206f776e657220717565727920666f72206e6f6e6578697374656e7420746f6b656ea2646970667358221220e4c4df0a7f7ccc215a22c24f4172b63d6e4b2c042ef45f823cdf6710aee0bf0c64736f6c63430006090033",
  "immutableReferences": {},
  "source": "\r\n// SPDX-License-Identifier: MIT\r\n\r\npragma solidity ^0.6.0;\r\npragma experimental ABIEncoderV2;\r\n\r\nimport \"./ERC721.sol\";\r\n\r\ncontract photoToken is ERC721 {\r\n\r\n\tstruct Photo\r\n\t{\r\n        uint photo_id;\r\n        string name;\r\n        uint size;\r\n        bool originality;\r\n\t}\r\n\r\n\tPhoto[] public photos;\r\n\r\n\tmapping(uint => bool) _photoExists;\r\n\r\n\tconstructor () ERC721(\"Photo\",\"PIC\") public {\r\n\t}\r\n\r\n//Mints a token for the caller.\r\n\tfunction mint(Photo memory _photo) public {\r\n\t\trequire(_photoExists[_photo.photo_id] == false, \"photo_id already exists\");\r\n\t\tphotos.push(_photo);\r\n\t\t_photoExists[_photo.photo_id] = true;\r\n\t\t_mint(msg.sender, _photo.photo_id);\r\n\t}\r\n\r\n//A function that can set value for the unique item in a standardized way. So far limited to a single token.\r\n\tfunction look_up(Photo memory _photo) public pure returns(uint) {\r\n        uint value = 0;\r\n        if (_photo.size >= 0 && _photo.size <= 10) {value = 50;}\r\n        else if (_photo.size > 10 && _photo.size <= 20) {value = 100;}\r\n        else if (_photo.size > 20 ) {value = 200;}\r\n        else value = 0;\r\n        if (_photo.originality == true) {value = value * 2;}\r\n        return value;\r\n    }\r\n\r\n//This function should be called by the buyer.\r\n    function exchange(Photo memory _photo,uint _amount) public payable returns(bool){\r\n        uint requiredValue = look_up(_photo);\r\n        require(_amount==requiredValue,\"Incorrect value sent\");\r\n        _transfer(ownerOf(_photo.photo_id),msg.sender,_photo.photo_id);\r\n    }\r\n\r\n}",
  "sourcePath": "Z:\\BD\\Smart Contract Essentials\\assignment\\trial2\\contracts\\photo_base.sol",
  "compiler": {
    "name": "solc",
    "version": "0.6.9+commit.3e3065ac.Emscripten.clang"
  },
  "schemaVersion": "3.2.0",
  "updatedAt": "2020-06-09T00:22:19.725Z",
  "devdoc": {
    "methods": {
      "approve(address,uint256)": {
        "details": "Approves another address to transfer the given token ID The zero address indicates there is no approved address. There can only be one approved address per token at a given time. Can only be called by the token owner or an approved operator.",
        "params": {
          "to": "address to be approved for the given token ID",
          "tokenId": "uint256 ID of the token to be approved"
        }
      },
      "balanceOf(address)": {
        "details": "Gets the balance of the specified address.",
        "params": {
          "owner": "address to query the balance of"
        },
        "returns": {
          "_0": "uint256 representing the amount owned by the passed address"
        }
      },
      "baseURI()": {
        "details": "Returns the base URI set via {_setBaseURI}. This will be automatically added as a prefix in {tokenURI} to each token's URI, or to the token ID if no specific URI is set for that token ID."
      },
      "getApproved(uint256)": {
        "details": "Gets the approved address for a token ID, or zero if no address set Reverts if the token ID does not exist.",
        "params": {
          "tokenId": "uint256 ID of the token to query the approval of"
        },
        "returns": {
          "_0": "address currently approved for the given token ID"
        }
      },
      "isApprovedForAll(address,address)": {
        "details": "Tells whether an operator is approved by a given owner.",
        "params": {
          "operator": "operator address which you want to query the approval of",
          "owner": "owner address which you want to query the approval of"
        },
        "returns": {
          "_0": "bool whether the given operator is approved by the given owner"
        }
      },
      "name()": {
        "details": "Gets the token name.",
        "returns": {
          "_0": "string representing the token name"
        }
      },
      "ownerOf(uint256)": {
        "details": "Gets the owner of the specified token ID.",
        "params": {
          "tokenId": "uint256 ID of the token to query the owner of"
        },
        "returns": {
          "_0": "address currently marked as the owner of the given token ID"
        }
      },
      "safeTransferFrom(address,address,uint256)": {
        "details": "Safely transfers the ownership of a given token ID to another address If the target address is a contract, it must implement {IERC721Receiver-onERC721Received}, which is called upon a safe transfer, and return the magic value `bytes4(keccak256(\"onERC721Received(address,address,uint256,bytes)\"))`; otherwise, the transfer is reverted. Requires the msg.sender to be the owner, approved, or operator",
        "params": {
          "from": "current owner of the token",
          "to": "address to receive the ownership of the given token ID",
          "tokenId": "uint256 ID of the token to be transferred"
        }
      },
      "safeTransferFrom(address,address,uint256,bytes)": {
        "details": "Safely transfers the ownership of a given token ID to another address If the target address is a contract, it must implement {IERC721Receiver-onERC721Received}, which is called upon a safe transfer, and return the magic value `bytes4(keccak256(\"onERC721Received(address,address,uint256,bytes)\"))`; otherwise, the transfer is reverted. Requires the _msgSender() to be the owner, approved, or operator",
        "params": {
          "_data": "bytes data to send along with a safe transfer check",
          "from": "current owner of the token",
          "to": "address to receive the ownership of the given token ID",
          "tokenId": "uint256 ID of the token to be transferred"
        }
      },
      "setApprovalForAll(address,bool)": {
        "details": "Sets or unsets the approval of a given operator An operator is allowed to transfer all tokens of the sender on their behalf.",
        "params": {
          "approved": "representing the status of the approval to be set",
          "operator": "operator address to set the approval"
        }
      },
      "supportsInterface(bytes4)": {
        "details": "See {IERC165-supportsInterface}. Time complexity O(1), guaranteed to always use less than 30 000 gas."
      },
      "symbol()": {
        "details": "Gets the token symbol.",
        "returns": {
          "_0": "string representing the token symbol"
        }
      },
      "tokenByIndex(uint256)": {
        "details": "Gets the token ID at a given index of all the tokens in this contract Reverts if the index is greater or equal to the total number of tokens.",
        "params": {
          "index": "uint256 representing the index to be accessed of the tokens list"
        },
        "returns": {
          "_0": "uint256 token ID at the given index of the tokens list"
        }
      },
      "tokenOfOwnerByIndex(address,uint256)": {
        "details": "Gets the token ID at a given index of the tokens list of the requested owner.",
        "params": {
          "index": "uint256 representing the index to be accessed of the requested tokens list",
          "owner": "address owning the tokens list to be accessed"
        },
        "returns": {
          "_0": "uint256 token ID at the given index of the tokens list owned by the requested address"
        }
      },
      "tokenURI(uint256)": {
        "details": "Returns the URI for a given token ID. May return an empty string. If a base URI is set (via {_setBaseURI}), it is added as a prefix to the token's own URI (via {_setTokenURI}). If there is a base URI but no token URI, the token's ID will be used as its URI when appending it to the base URI. This pattern for autogenerated token URIs can lead to large gas savings. .Examples |=== |`_setBaseURI()` |`_setTokenURI()` |`tokenURI()` | \"\" | \"\" | \"\" | \"\" | \"token.uri/123\" | \"token.uri/123\" | \"token.uri/\" | \"123\" | \"token.uri/123\" | \"token.uri/\" | \"\" | \"token.uri/<tokenId>\" |=== Requirements: - `tokenId` must exist."
      },
      "totalSupply()": {
        "details": "Gets the total amount of tokens stored by the contract.",
        "returns": {
          "_0": "uint256 representing the total amount of tokens"
        }
      },
      "transferFrom(address,address,uint256)": {
        "details": "Transfers the ownership of a given token ID to another address. Usage of this method is discouraged, use {safeTransferFrom} whenever possible. Requires the msg.sender to be the owner, approved, or operator.",
        "params": {
          "from": "current owner of the token",
          "to": "address to receive the ownership of the given token ID",
          "tokenId": "uint256 ID of the token to be transferred"
        }
      }
    }
  },
  "userdoc": {
    "methods": {}
  }
}