{
  "contractName": "photoToken",
  "abi": [
    {
      "inputs": [],
      "stateMutability": "nonpayable",
      "type": "constructor"
    },
    {
      "anonymous": false,
      "inputs": [
        {
          "indexed": true,
          "internalType": "address",
          "name": "owner",
          "type": "address"
        },
        {
          "indexed": true,
          "internalType": "address",
          "name": "approved",
          "type": "address"
        },
        {
          "indexed": true,
          "internalType": "uint256",
          "name": "tokenId",
          "type": "uint256"
        }
      ],
      "name": "Approval",
      "type": "event"
    },
    {
      "anonymous": false,
      "inputs": [
        {
          "indexed": true,
          "internalType": "address",
          "name": "owner",
          "type": "address"
        },
        {
          "indexed": true,
          "internalType": "address",
          "name": "operator",
          "type": "address"
        },
        {
          "indexed": false,
          "internalType": "bool",
          "name": "approved",
          "type": "bool"
        }
      ],
      "name": "ApprovalForAll",
      "type": "event"
    },
    {
      "anonymous": false,
      "inputs": [
        {
          "indexed": true,
          "internalType": "address",
          "name": "from",
          "type": "address"
        },
        {
          "indexed": true,
          "internalType": "address",
          "name": "to",
          "type": "address"
        },
        {
          "indexed": true,
          "internalType": "uint256",
          "name": "tokenId",
          "type": "uint256"
        }
      ],
      "name": "Transfer",
      "type": "event"
    },
    {
      "inputs": [
        {
          "internalType": "address",
          "name": "to",
          "type": "address"
        },
        {
          "internalType": "uint256",
          "name": "tokenId",
          "type": "uint256"
        }
      ],
      "name": "approve",
      "outputs": [],
      "stateMutability": "nonpayable",
      "type": "function"
    },
    {
      "inputs": [
        {
          "internalType": "address",
          "name": "owner",
          "type": "address"
        }
      ],
      "name": "balanceOf",
      "outputs": [
        {
          "internalType": "uint256",
          "name": "",
          "type": "uint256"
        }
      ],
      "stateMutability": "view",
      "type": "function"
    },
    {
      "inputs": [],
      "name": "baseURI",
      "outputs": [
        {
          "internalType": "string",
          "name": "",
          "type": "string"
        }
      ],
      "stateMutability": "view",
      "type": "function"
    },
    {
      "inputs": [
        {
          "internalType": "uint256",
          "name": "tokenId",
          "type": "uint256"
        }
      ],
      "name": "getApproved",
      "outputs": [
        {
          "internalType": "address",
          "name": "",
          "type": "address"
        }
      ],
      "stateMutability": "view",
      "type": "function"
    },
    {
      "inputs": [
        {
          "internalType": "address",
          "name": "owner",
          "type": "address"
        },
        {
          "internalType": "address",
          "name": "operator",
          "type": "address"
        }
      ],
      "name": "isApprovedForAll",
      "outputs": [
        {
          "internalType": "bool",
          "name": "",
          "type": "bool"
        }
      ],
      "stateMutability": "view",
      "type": "function"
    },
    {
      "inputs": [],
      "name": "name",
      "outputs": [
        {
          "internalType": "string",
          "name": "",
          "type": "string"
        }
      ],
      "stateMutability": "view",
      "type": "function"
    },
    {
      "inputs": [
        {
          "internalType": "uint256",
          "name": "tokenId",
          "type": "uint256"
        }
      ],
      "name": "ownerOf",
      "outputs": [
        {
          "internalType": "address",
          "name": "",
          "type": "address"
        }
      ],
      "stateMutability": "view",
      "type": "function"
    },
    {
      "inputs": [
        {
          "internalType": "uint256",
          "name": "",
          "type": "uint256"
        }
      ],
      "name": "photos",
      "outputs": [
        {
          "internalType": "string",
          "name": "photo_id",
          "type": "string"
        },
        {
          "internalType": "uint256",
          "name": "size",
          "type": "uint256"
        },
        {
          "internalType": "bool",
          "name": "originality",
          "type": "bool"
        }
      ],
      "stateMutability": "view",
      "type": "function"
    },
    {
      "inputs": [
        {
          "internalType": "address",
          "name": "from",
          "type": "address"
        },
        {
          "internalType": "address",
          "name": "to",
          "type": "address"
        },
        {
          "internalType": "uint256",
          "name": "tokenId",
          "type": "uint256"
        }
      ],
      "name": "safeTransferFrom",
      "outputs": [],
      "stateMutability": "nonpayable",
      "type": "function"
    },
    {
      "inputs": [
        {
          "internalType": "address",
          "name": "from",
          "type": "address"
        },
        {
          "internalType": "address",
          "name": "to",
          "type": "address"
        },
        {
          "internalType": "uint256",
          "name": "tokenId",
          "type": "uint256"
        },
        {
          "internalType": "bytes",
          "name": "_data",
          "type": "bytes"
        }
      ],
      "name": "safeTransferFrom",
      "outputs": [],
      "stateMutability": "nonpayable",
      "type": "function"
    },
    {
      "inputs": [
        {
          "internalType": "address",
          "name": "operator",
          "type": "address"
        },
        {
          "internalType": "bool",
          "name": "approved",
          "type": "bool"
        }
      ],
      "name": "setApprovalForAll",
      "outputs": [],
      "stateMutability": "nonpayable",
      "type": "function"
    },
    {
      "inputs": [
        {
          "internalType": "bytes4",
          "name": "interfaceId",
          "type": "bytes4"
        }
      ],
      "name": "supportsInterface",
      "outputs": [
        {
          "internalType": "bool",
          "name": "",
          "type": "bool"
        }
      ],
      "stateMutability": "view",
      "type": "function"
    },
    {
      "inputs": [],
      "name": "symbol",
      "outputs": [
        {
          "internalType": "string",
          "name": "",
          "type": "string"
        }
      ],
      "stateMutability": "view",
      "type": "function"
    },
    {
      "inputs": [
        {
          "internalType": "uint256",
          "name": "index",
          "type": "uint256"
        }
      ],
      "name": "tokenByIndex",
      "outputs": [
        {
          "internalType": "uint256",
          "name": "",
          "type": "uint256"
        }
      ],
      "stateMutability": "view",
      "type": "function"
    },
    {
      "inputs": [
        {
          "internalType": "address",
          "name": "owner",
          "type": "address"
        },
        {
          "internalType": "uint256",
          "name": "index",
          "type": "uint256"
        }
      ],
      "name": "tokenOfOwnerByIndex",
      "outputs": [
        {
          "internalType": "uint256",
          "name": "",
          "type": "uint256"
        }
      ],
      "stateMutability": "view",
      "type": "function"
    },
    {
      "inputs": [
        {
          "internalType": "uint256",
          "name": "tokenId",
          "type": "uint256"
        }
      ],
      "name": "tokenURI",
      "outputs": [
        {
          "internalType": "string",
          "name": "",
          "type": "string"
        }
      ],
      "stateMutability": "view",
      "type": "function"
    },
    {
      "inputs": [],
      "name": "totalSupply",
      "outputs": [
        {
          "internalType": "uint256",
          "name": "",
          "type": "uint256"
        }
      ],
      "stateMutability": "view",
      "type": "function"
    },
    {
      "inputs": [
        {
          "internalType": "address",
          "name": "from",
          "type": "address"
        },
        {
          "internalType": "address",
          "name": "to",
          "type": "address"
        },
        {
          "internalType": "uint256",
          "name": "tokenId",
          "type": "uint256"
        }
      ],
      "name": "transferFrom",
      "outputs": [],
      "stateMutability": "nonpayable",
      "type": "function"
    },
    {
      "inputs": [
        {
          "components": [
            {
              "internalType": "string",
              "name": "photo_id",
              "type": "string"
            },
            {
              "internalType": "uint256",
              "name": "size",
              "type": "uint256"
            },
            {
              "internalType": "bool",
              "name": "originality",
              "type": "bool"
            }
          ],
          "internalType": "struct photoToken.Photo",
          "name": "_photo",
          "type": "tuple"
        }
      ],
      "name": "mint",
      "outputs": [],
      "stateMutability": "nonpayable",
      "type": "function"
    },
    {
      "inputs": [
        {
          "components": [
            {
              "internalType": "string",
              "name": "photo_id",
              "type": "string"
            },
            {
              "internalType": "uint256",
              "name": "size",
              "type": "uint256"
            },
            {
              "internalType": "bool",
              "name": "originality",
              "type": "bool"
            }
          ],
          "internalType": "struct photoToken.Photo",
          "name": "_photo",
          "type": "tuple"
        }
      ],
      "name": "look_up",
      "outputs": [
        {
          "internalType": "uint256",
          "name": "",
          "type": "uint256"
        }
      ],
      "stateMutability": "pure",
      "type": "function"
    },
    {
      "inputs": [
        {
          "components": [
            {
              "internalType": "string",
              "name": "photo_id",
              "type": "string"
            },
            {
              "internalType": "uint256",
              "name": "size",
              "type": "uint256"
            },
            {
              "internalType": "bool",
              "name": "originality",
              "type": "bool"
            }
          ],
          "internalType": "struct photoToken.Photo",
          "name": "_photo",
          "type": "tuple"
        },
        {
          "internalType": "uint256",
          "name": "_amount",
          "type": "uint256"
        }
      ],
      "name": "exchange",
      "outputs": [
        {
          "internalType": "bool",
          "name": "",
          "type": "bool"
        }
      ],
      "stateMutability": "payable",
      "type": "function"
    }
  ],
  "bytecode": "0x60806040523480156200001157600080fd5b506040518060400160405280600581526020017f50686f746f0000000000000000000000000000000000000000000000000000008152506040518060400160405280600381526020017f5049430000000000000000000000000000000000000000000000000000000000815250620000966301ffc9a760e01b6200011860201b60201c565b8160069080519060200190620000ae929190620001f0565b508060079080519060200190620000c7929190620001f0565b50620000e06380ac58cd60e01b6200011860201b60201c565b620000f8635b5e139f60e01b6200011860201b60201c565b6200011063780e9d6360e01b6200011860201b60201c565b505062000314565b63ffffffff60e01b817bffffffffffffffffffffffffffffffffffffffffffffffffffffffff1916141562000184576040517f08c379a00000000000000000000000000000000000000000000000000000000081526004016200017b90620002e1565b60405180910390fd5b6001600080837bffffffffffffffffffffffffffffffffffffffffffffffffffffffff19167bffffffffffffffffffffffffffffffffffffffffffffffffffffffff1916815260200190815260200160002060006101000a81548160ff02191690831515021790555050565b828054600181600116156101000203166002900490600052602060002090601f016020900481019282601f106200023357805160ff191683800117855562000264565b8280016001018555821562000264579182015b828111156200026357825182559160200191906001019062000246565b5b50905062000273919062000277565b5090565b6200029c91905b80821115620002985760008160009055506001016200027e565b5090565b90565b6000620002ae601c8362000303565b91507f4552433136353a20696e76616c696420696e74657266616365206964000000006000830152602082019050919050565b60006020820190508181036000830152620002fc816200029f565b9050919050565b600082825260208201905092915050565b61333b80620003246000396000f3fe60806040526004361061012a5760003560e01c80636c0360eb116100ab578063aeaf4f571161006f578063aeaf4f571461042a578063af2a5d6f1461045a578063b88d4fde14610499578063c87b56dd146104c2578063e8cc1085146104ff578063e985e9c5146105285761012a565b80636c0360eb1461033157806370a082311461035c57806395d89b41146103995780639a4f824c146103c4578063a22cb465146104015761012a565b806323b872dd116100f257806323b872dd146102285780632f745c591461025157806342842e0e1461028e5780634f6ccce7146102b75780636352211e146102f45761012a565b806301ffc9a71461012f57806306fdde031461016c578063081812fc14610197578063095ea7b3146101d457806318160ddd146101fd575b600080fd5b34801561013b57600080fd5b506101566004803603810190610151919061249a565b610565565b6040516101639190612e09565b60405180910390f35b34801561017857600080fd5b506101816105cc565b60405161018e9190612e24565b60405180910390f35b3480156101a357600080fd5b506101be60048036038101906101b99190612581565b61066e565b6040516101cb9190612da2565b60405180910390f35b3480156101e057600080fd5b506101fb60048036038101906101f6919061245e565b6106f3565b005b34801561020957600080fd5b5061021261080b565b60405161021f91906130a4565b60405180910390f35b34801561023457600080fd5b5061024f600480360381019061024a9190612358565b61081c565b005b34801561025d57600080fd5b506102786004803603810190610273919061245e565b61087c565b60405161028591906130a4565b60405180910390f35b34801561029a57600080fd5b506102b560048036038101906102b09190612358565b6108d7565b005b3480156102c357600080fd5b506102de60048036038101906102d99190612581565b6108f7565b6040516102eb91906130a4565b60405180910390f35b34801561030057600080fd5b5061031b60048036038101906103169190612581565b61091a565b6040516103289190612da2565b60405180910390f35b34801561033d57600080fd5b50610346610951565b6040516103539190612e24565b60405180910390f35b34801561036857600080fd5b50610383600480360381019061037e91906122f3565b6109f3565b60405161039091906130a4565b60405180910390f35b3480156103a557600080fd5b506103ae610ab2565b6040516103bb9190612e24565b60405180910390f35b3480156103d057600080fd5b506103eb60048036038101906103e691906124ec565b610b54565b6040516103f891906130a4565b60405180910390f35b34801561040d57600080fd5b5061042860048036038101906104239190612422565b610be8565b005b610444600480360381019061043f919061252d565b610d69565b6040516104519190612e09565b60405180910390f35b34801561046657600080fd5b50610481600480360381019061047c9190612581565b610dc0565b60405161049093929190612e46565b60405180910390f35b3480156104a557600080fd5b506104c060048036038101906104bb91906123a7565b610e9c565b005b3480156104ce57600080fd5b506104e960048036038101906104e49190612581565b610efe565b6040516104f69190612e24565b60405180910390f35b34801561050b57600080fd5b50610526600480360381019061052191906124ec565b611089565b005b34801561053457600080fd5b5061054f600480360381019061054a919061231c565b6111ca565b60405161055c9190612e09565b60405180910390f35b6000806000837bffffffffffffffffffffffffffffffffffffffffffffffffffffffff19167bffffffffffffffffffffffffffffffffffffffffffffffffffffffff1916815260200190815260200160002060009054906101000a900460ff169050919050565b606060068054600181600116156101000203166002900480601f0160208091040260200160405190810160405280929190818152602001828054600181600116156101000203166002900480156106645780601f1061063957610100808354040283529160200191610664565b820191906000526020600020905b81548152906001019060200180831161064757829003601f168201915b5050505050905090565b60006106798261125e565b6106b8576040517f08c379a00000000000000000000000000000000000000000000000000000000081526004016106af90613004565b60405180910390fd5b6004600083815260200190815260200160002060009054906101000a900473ffffffffffffffffffffffffffffffffffffffff169050919050565b60006106fe8261091a565b90508073ffffffffffffffffffffffffffffffffffffffff168373ffffffffffffffffffffffffffffffffffffffff16141561076f576040517f08c379a000000000000000000000000000000000000000000000000000000000815260040161076690613064565b60405180910390fd5b8073ffffffffffffffffffffffffffffffffffffffff1661078e61127b565b73ffffffffffffffffffffffffffffffffffffffff1614806107bd57506107bc816107b761127b565b6111ca565b5b6107fc576040517f08c379a00000000000000000000000000000000000000000000000000000000081526004016107f390612f84565b60405180910390fd5b6108068383611283565b505050565b6000610817600261133c565b905090565b61082d61082761127b565b82611351565b61086c576040517f08c379a000000000000000000000000000000000000000000000000000000000815260040161086390613084565b60405180910390fd5b61087783838361142f565b505050565b60006108cf82600160008673ffffffffffffffffffffffffffffffffffffffff1673ffffffffffffffffffffffffffffffffffffffff16815260200190815260200160002061164690919063ffffffff16565b905092915050565b6108f283838360405180602001604052806000815250610e9c565b505050565b60008061090e83600261166090919063ffffffff16565b50905080915050919050565b600061094a826040518060600160405280602981526020016132dd60299139600261168f9092919063ffffffff16565b9050919050565b606060098054600181600116156101000203166002900480601f0160208091040260200160405190810160405280929190818152602001828054600181600116156101000203166002900480156109e95780601f106109be576101008083540402835291602001916109e9565b820191906000526020600020905b8154815290600101906020018083116109cc57829003601f168201915b5050505050905090565b60008073ffffffffffffffffffffffffffffffffffffffff168273ffffffffffffffffffffffffffffffffffffffff161415610a64576040517f08c379a0000000000000000000000000000000000000000000000000000000008152600401610a5b90612fa4565b60405180910390fd5b610aab600160008473ffffffffffffffffffffffffffffffffffffffff1673ffffffffffffffffffffffffffffffffffffffff1681526020019081526020016000206116ae565b9050919050565b606060078054600181600116156101000203166002900480601f016020809104026020016040519081016040528092919081815260200182805460018160011615610100020316600290048015610b4a5780601f10610b1f57610100808354040283529160200191610b4a565b820191906000526020600020905b815481529060010190602001808311610b2d57829003601f168201915b5050505050905090565b600080600090506000836020015110158015610b755750600a836020015111155b15610b835760329050610bc7565b600a8360200151118015610b9c57506014836020015111155b15610baa5760649050610bc6565b601483602001511115610bc05760c89050610bc5565b600090505b5b5b60011515836040015115151415610bdf576002810290505b80915050919050565b610bf061127b565b73ffffffffffffffffffffffffffffffffffffffff168273ffffffffffffffffffffffffffffffffffffffff161415610c5e576040517f08c379a0000000000000000000000000000000000000000000000000000000008152600401610c5590612f24565b60405180910390fd5b8060056000610c6b61127b565b73ffffffffffffffffffffffffffffffffffffffff1673ffffffffffffffffffffffffffffffffffffffff16815260200190815260200160002060008473ffffffffffffffffffffffffffffffffffffffff1673ffffffffffffffffffffffffffffffffffffffff16815260200190815260200160002060006101000a81548160ff0219169083151502179055508173ffffffffffffffffffffffffffffffffffffffff16610d1861127b565b73ffffffffffffffffffffffffffffffffffffffff167f17307eab39ab6107e8899845ad3d59bd9653f200f220920489ca2b5937696c3183604051610d5d9190612e09565b60405180910390a35050565b600080610d7584610b54565b9050808314610db9576040517f08c379a0000000000000000000000000000000000000000000000000000000008152600401610db090612f44565b60405180910390fd5b5092915050565b600a8181548110610dcd57fe5b9060005260206000209060030201600091509050806000018054600181600116156101000203166002900480601f016020809104026020016040519081016040528092919081815260200182805460018160011615610100020316600290048015610e795780601f10610e4e57610100808354040283529160200191610e79565b820191906000526020600020905b815481529060010190602001808311610e5c57829003601f168201915b5050505050908060010154908060020160009054906101000a900460ff16905083565b610ead610ea761127b565b83611351565b610eec576040517f08c379a0000000000000000000000000000000000000000000000000000000008152600401610ee390613084565b60405180910390fd5b610ef8848484846116c3565b50505050565b6060610f098261125e565b610f48576040517f08c379a0000000000000000000000000000000000000000000000000000000008152600401610f3f90613044565b60405180910390fd5b6060600860008481526020019081526020016000208054600181600116156101000203166002900480601f016020809104026020016040519081016040528092919081815260200182805460018160011615610100020316600290048015610ff15780601f10610fc657610100808354040283529160200191610ff1565b820191906000526020600020905b815481529060010190602001808311610fd457829003601f168201915b505050505090506000600980546001816001161561010002031660029004905014156110205780915050611084565b6000815111156110555760098160405160200161103e929190612d7e565b604051602081830303815290604052915050611084565b60096110608461171f565b604051602001611071929190612d7e565b6040516020818303038152906040529150505b919050565b60001515600b82600001516040516110a19190612d67565b908152602001604051809103902060009054906101000a900460ff161515146110ff576040517f08c379a00000000000000000000000000000000000000000000000000000000081526004016110f690612ea4565b60405180910390fd5b600a81908060018154018082558091505060019003906000526020600020906003020160009091909190915060008201518160000190805190602001906111479291906120c5565b506020820151816001015560408201518160020160006101000a81548160ff021916908315150217905550505060006001600a805490500390506001600b83600001516040516111979190612d67565b908152602001604051809103902060006101000a81548160ff0219169083151502179055506111c63382611866565b5050565b6000600560008473ffffffffffffffffffffffffffffffffffffffff1673ffffffffffffffffffffffffffffffffffffffff16815260200190815260200160002060008373ffffffffffffffffffffffffffffffffffffffff1673ffffffffffffffffffffffffffffffffffffffff16815260200190815260200160002060009054906101000a900460ff16905092915050565b60006112748260026119f490919063ffffffff16565b9050919050565b600033905090565b816004600083815260200190815260200160002060006101000a81548173ffffffffffffffffffffffffffffffffffffffff021916908373ffffffffffffffffffffffffffffffffffffffff160217905550808273ffffffffffffffffffffffffffffffffffffffff166112f68361091a565b73ffffffffffffffffffffffffffffffffffffffff167f8c5be1e5ebec7d5bd14f71427d1e84f3dd0314c0f7b2291e5b200ac8c7c3b92560405160405180910390a45050565b600061134a82600001611a0e565b9050919050565b600061135c8261125e565b61139b576040517f08c379a000000000000000000000000000000000000000000000000000000000815260040161139290612f64565b60405180910390fd5b60006113a68361091a565b90508073ffffffffffffffffffffffffffffffffffffffff168473ffffffffffffffffffffffffffffffffffffffff16148061141557508373ffffffffffffffffffffffffffffffffffffffff166113fd8461066e565b73ffffffffffffffffffffffffffffffffffffffff16145b80611426575061142581856111ca565b5b91505092915050565b8273ffffffffffffffffffffffffffffffffffffffff1661144f8261091a565b73ffffffffffffffffffffffffffffffffffffffff16146114a5576040517f08c379a000000000000000000000000000000000000000000000000000000000815260040161149c90613024565b60405180910390fd5b600073ffffffffffffffffffffffffffffffffffffffff168273ffffffffffffffffffffffffffffffffffffffff161415611515576040517f08c379a000000000000000000000000000000000000000000000000000000000815260040161150c90612f04565b60405180910390fd5b611520838383611a1f565b61152b600082611283565b61157c81600160008673ffffffffffffffffffffffffffffffffffffffff1673ffffffffffffffffffffffffffffffffffffffff168152602001908152602001600020611a2490919063ffffffff16565b506115ce81600160008573ffffffffffffffffffffffffffffffffffffffff1673ffffffffffffffffffffffffffffffffffffffff168152602001908152602001600020611a3e90919063ffffffff16565b506115e581836002611a589092919063ffffffff16565b50808273ffffffffffffffffffffffffffffffffffffffff168473ffffffffffffffffffffffffffffffffffffffff167fddf252ad1be2c89b69c2b068fc378daa952ba7f163c4a11628f55a4df523b3ef60405160405180910390a4505050565b60006116558360000183611a8d565b60001c905092915050565b6000806000806116738660000186611afa565b915091508160001c8160001c8090509350935050509250929050565b60006116a2846000018460001b84611b7d565b60001c90509392505050565b60006116bc82600001611c0e565b9050919050565b6116ce84848461142f565b6116da84848484611c1f565b611719576040517f08c379a000000000000000000000000000000000000000000000000000000000815260040161171090612ec4565b60405180910390fd5b50505050565b60606000821415611767576040518060400160405280600181526020017f30000000000000000000000000000000000000000000000000000000000000008152509050611861565b600082905060005b60008214611791578080600101915050600a828161178957fe5b04915061176f565b60608167ffffffffffffffff811180156117aa57600080fd5b506040519080825280601f01601f1916602001820160405280156117dd5781602001600182028036833780820191505090505b50905060006001830390508593505b6000841461185957600a84816117fe57fe5b0660300160f81b8282806001900393508151811061181857fe5b60200101907effffffffffffffffffffffffffffffffffffffffffffffffffffffffffffff1916908160001a905350600a848161185157fe5b0493506117ec565b819450505050505b919050565b600073ffffffffffffffffffffffffffffffffffffffff168273ffffffffffffffffffffffffffffffffffffffff1614156118d6576040517f08c379a00000000000000000000000000000000000000000000000000000000081526004016118cd90612fe4565b60405180910390fd5b6118df8161125e565b1561191f576040517f08c379a000000000000000000000000000000000000000000000000000000000815260040161191690612ee4565b60405180910390fd5b61192b60008383611a1f565b61197c81600160008573ffffffffffffffffffffffffffffffffffffffff1673ffffffffffffffffffffffffffffffffffffffff168152602001908152602001600020611a3e90919063ffffffff16565b5061199381836002611a589092919063ffffffff16565b50808273ffffffffffffffffffffffffffffffffffffffff16600073ffffffffffffffffffffffffffffffffffffffff167fddf252ad1be2c89b69c2b068fc378daa952ba7f163c4a11628f55a4df523b3ef60405160405180910390a45050565b6000611a06836000018360001b611e00565b905092915050565b600081600001805490509050919050565b505050565b6000611a36836000018360001b611e23565b905092915050565b6000611a50836000018360001b611f0b565b905092915050565b6000611a84846000018460001b8473ffffffffffffffffffffffffffffffffffffffff1660001b611f7b565b90509392505050565b600081836000018054905011611ad8576040517f08c379a0000000000000000000000000000000000000000000000000000000008152600401611acf90612e84565b60405180910390fd5b826000018281548110611ae757fe5b9060005260206000200154905092915050565b60008082846000018054905011611b46576040517f08c379a0000000000000000000000000000000000000000000000000000000008152600401611b3d90612fc4565b60405180910390fd5b6000846000018481548110611b5757fe5b906000526020600020906002020190508060000154816001015492509250509250929050565b60008084600101600085815260200190815260200160002054905060008114158390611bdf576040517f08c379a0000000000000000000000000000000000000000000000000000000008152600401611bd69190612e24565b60405180910390fd5b50846000016001820381548110611bf257fe5b9060005260206000209060020201600101549150509392505050565b600081600001805490509050919050565b6000611c408473ffffffffffffffffffffffffffffffffffffffff16612057565b611c4d5760019050611df8565b600060608573ffffffffffffffffffffffffffffffffffffffff1663150b7a0260e01b611c7861127b565b898888604051602401611c8e9493929190612dbd565b604051602081830303815290604052907bffffffffffffffffffffffffffffffffffffffffffffffffffffffff19166020820180517bffffffffffffffffffffffffffffffffffffffffffffffffffffffff8381831617835250505050604051611cf89190612d50565b6000604051808303816000865af19150503d8060008114611d35576040519150601f19603f3d011682016040523d82523d6000602084013e611d3a565b606091505b509150915081611d9257600081511115611d575780518082602001fd5b6040517f08c379a0000000000000000000000000000000000000000000000000000000008152600401611d8990612ec4565b60405180910390fd5b600081806020019051810190611da891906124c3565b905063150b7a0260e01b7bffffffffffffffffffffffffffffffffffffffffffffffffffffffff1916817bffffffffffffffffffffffffffffffffffffffffffffffffffffffff19161493505050505b949350505050565b600080836001016000848152602001908152602001600020541415905092915050565b60008083600101600084815260200190815260200160002054905060008114611eff5760006001820390506000600186600001805490500390506000866000018281548110611e6e57fe5b9060005260206000200154905080876000018481548110611e8b57fe5b9060005260206000200181905550600183018760010160008381526020019081526020016000208190555086600001805480611ec357fe5b60019003818190600052602060002001600090559055866001016000878152602001908152602001600020600090556001945050505050611f05565b60009150505b92915050565b6000611f1783836120a2565b611f70578260000182908060018154018082558091505060019003906000526020600020016000909190919091505582600001805490508360010160008481526020019081526020016000208190555060019050611f75565b600090505b92915050565b600080846001016000858152602001908152602001600020549050600081141561202257846000016040518060400160405280868152602001858152509080600181540180825580915050600190039060005260206000209060020201600090919091909150600082015181600001556020820151816001015550508460000180549050856001016000868152602001908152602001600020819055506001915050612050565b8285600001600183038154811061203557fe5b90600052602060002090600202016001018190555060009150505b9392505050565b60008060007fc5d2460186f7233c927e7db2dcc703c0e500b653ca82273b7bfad8045d85a47060001b9050833f915080821415801561209957506000801b8214155b92505050919050565b600080836001016000848152602001908152602001600020541415905092915050565b828054600181600116156101000203166002900490600052602060002090601f016020900481019282601f1061210657805160ff1916838001178555612134565b82800160010185558215612134579182015b82811115612133578251825591602001919060010190612118565b5b5090506121419190612145565b5090565b61216791905b8082111561216357600081600090555060010161214b565b5090565b90565b60008135905061217981613280565b92915050565b60008135905061218e81613297565b92915050565b6000813590506121a3816132ae565b92915050565b6000815190506121b8816132ae565b92915050565b600082601f8301126121cf57600080fd5b81356121e26121dd826130ec565b6130bf565b915080825260208301602083018583830111156121fe57600080fd5b61220983828461322d565b50505092915050565b600082601f83011261222357600080fd5b813561223661223182613118565b6130bf565b9150808252602083016020830185838301111561225257600080fd5b61225d83828461322d565b50505092915050565b60006060828403121561227857600080fd5b61228260606130bf565b9050600082013567ffffffffffffffff81111561229e57600080fd5b6122aa84828501612212565b60008301525060206122be848285016122de565b60208301525060406122d28482850161217f565b60408301525092915050565b6000813590506122ed816132c5565b92915050565b60006020828403121561230557600080fd5b60006123138482850161216a565b91505092915050565b6000806040838503121561232f57600080fd5b600061233d8582860161216a565b925050602061234e8582860161216a565b9150509250929050565b60008060006060848603121561236d57600080fd5b600061237b8682870161216a565b935050602061238c8682870161216a565b925050604061239d868287016122de565b9150509250925092565b600080600080608085870312156123bd57600080fd5b60006123cb8782880161216a565b94505060206123dc8782880161216a565b93505060406123ed878288016122de565b925050606085013567ffffffffffffffff81111561240a57600080fd5b612416878288016121be565b91505092959194509250565b6000806040838503121561243557600080fd5b60006124438582860161216a565b92505060206124548582860161217f565b9150509250929050565b6000806040838503121561247157600080fd5b600061247f8582860161216a565b9250506020612490858286016122de565b9150509250929050565b6000602082840312156124ac57600080fd5b60006124ba84828501612194565b91505092915050565b6000602082840312156124d557600080fd5b60006124e3848285016121a9565b91505092915050565b6000602082840312156124fe57600080fd5b600082013567ffffffffffffffff81111561251857600080fd5b61252484828501612266565b91505092915050565b6000806040838503121561254057600080fd5b600083013567ffffffffffffffff81111561255a57600080fd5b61256685828601612266565b9250506020612577858286016122de565b9150509250929050565b60006020828403121561259357600080fd5b60006125a1848285016122de565b91505092915050565b6125b3816131b9565b82525050565b6125c2816131a7565b82525050565b6125d1816131cb565b82525050565b60006125e282613159565b6125ec818561316f565b93506125fc81856020860161323c565b6126058161326f565b840191505092915050565b600061261b82613159565b6126258185613180565b935061263581856020860161323c565b80840191505092915050565b600061264c82613164565b612656818561318b565b935061266681856020860161323c565b61266f8161326f565b840191505092915050565b600061268582613164565b61268f818561319c565b935061269f81856020860161323c565b80840191505092915050565b6000815460018116600081146126c857600181146126ed57612731565b607f60028304166126d9818761319c565b955060ff1983168652808601935050612731565b600282046126fb818761319c565b955061270685613144565b60005b8281101561272857815481890152600182019150602081019050612709565b82880195505050505b505092915050565b600061274660228361318b565b91507f456e756d657261626c655365743a20696e646578206f7574206f6620626f756e60008301527f64730000000000000000000000000000000000000000000000000000000000006020830152604082019050919050565b60006127ac60178361318b565b91507f70686f746f5f696420616c7265616479206578697374730000000000000000006000830152602082019050919050565b60006127ec60328361318b565b91507f4552433732313a207472616e7366657220746f206e6f6e20455243373231526560008301527f63656976657220696d706c656d656e74657200000000000000000000000000006020830152604082019050919050565b6000612852601c8361318b565b91507f4552433732313a20746f6b656e20616c7265616479206d696e746564000000006000830152602082019050919050565b600061289260248361318b565b91507f4552433732313a207472616e7366657220746f20746865207a65726f2061646460008301527f72657373000000000000000000000000000000000000000000000000000000006020830152604082019050919050565b60006128f860198361318b565b91507f4552433732313a20617070726f766520746f2063616c6c6572000000000000006000830152602082019050919050565b600061293860148361318b565b91507f496e636f72726563742076616c75652073656e740000000000000000000000006000830152602082019050919050565b6000612978602c8361318b565b91507f4552433732313a206f70657261746f7220717565727920666f72206e6f6e657860008301527f697374656e7420746f6b656e00000000000000000000000000000000000000006020830152604082019050919050565b60006129de60388361318b565b91507f4552433732313a20617070726f76652063616c6c6572206973206e6f74206f7760008301527f6e6572206e6f7220617070726f76656420666f7220616c6c00000000000000006020830152604082019050919050565b6000612a44602a8361318b565b91507f4552433732313a2062616c616e636520717565727920666f7220746865207a6560008301527f726f2061646472657373000000000000000000000000000000000000000000006020830152604082019050919050565b6000612aaa60228361318b565b91507f456e756d657261626c654d61703a20696e646578206f7574206f6620626f756e60008301527f64730000000000000000000000000000000000000000000000000000000000006020830152604082019050919050565b6000612b1060208361318b565b91507f4552433732313a206d696e7420746f20746865207a65726f20616464726573736000830152602082019050919050565b6000612b50602c8361318b565b91507f4552433732313a20617070726f76656420717565727920666f72206e6f6e657860008301527f697374656e7420746f6b656e00000000000000000000000000000000000000006020830152604082019050919050565b6000612bb660298361318b565b91507f4552433732313a207472616e73666572206f6620746f6b656e2074686174206960008301527f73206e6f74206f776e00000000000000000000000000000000000000000000006020830152604082019050919050565b6000612c1c602f8361318b565b91507f4552433732314d657461646174613a2055524920717565727920666f72206e6f60008301527f6e6578697374656e7420746f6b656e00000000000000000000000000000000006020830152604082019050919050565b6000612c8260218361318b565b91507f4552433732313a20617070726f76616c20746f2063757272656e74206f776e6560008301527f72000000000000000000000000000000000000000000000000000000000000006020830152604082019050919050565b6000612ce860318361318b565b91507f4552433732313a207472616e736665722063616c6c6572206973206e6f74206f60008301527f776e6572206e6f7220617070726f7665640000000000000000000000000000006020830152604082019050919050565b612d4a81613223565b82525050565b6000612d5c8284612610565b915081905092915050565b6000612d73828461267a565b915081905092915050565b6000612d8a82856126ab565b9150612d96828461267a565b91508190509392505050565b6000602082019050612db760008301846125b9565b92915050565b6000608082019050612dd260008301876125aa565b612ddf60208301866125b9565b612dec6040830185612d41565b8181036060830152612dfe81846125d7565b905095945050505050565b6000602082019050612e1e60008301846125c8565b92915050565b60006020820190508181036000830152612e3e8184612641565b905092915050565b60006060820190508181036000830152612e608186612641565b9050612e6f6020830185612d41565b612e7c60408301846125c8565b949350505050565b60006020820190508181036000830152612e9d81612739565b9050919050565b60006020820190508181036000830152612ebd8161279f565b9050919050565b60006020820190508181036000830152612edd816127df565b9050919050565b60006020820190508181036000830152612efd81612845565b9050919050565b60006020820190508181036000830152612f1d81612885565b9050919050565b60006020820190508181036000830152612f3d816128eb565b9050919050565b60006020820190508181036000830152612f5d8161292b565b9050919050565b60006020820190508181036000830152612f7d8161296b565b9050919050565b60006020820190508181036000830152612f9d816129d1565b9050919050565b60006020820190508181036000830152612fbd81612a37565b9050919050565b60006020820190508181036000830152612fdd81612a9d565b9050919050565b60006020820190508181036000830152612ffd81612b03565b9050919050565b6000602082019050818103600083015261301d81612b43565b9050919050565b6000602082019050818103600083015261303d81612ba9565b9050919050565b6000602082019050818103600083015261305d81612c0f565b9050919050565b6000602082019050818103600083015261307d81612c75565b9050919050565b6000602082019050818103600083015261309d81612cdb565b9050919050565b60006020820190506130b96000830184612d41565b92915050565b6000604051905081810181811067ffffffffffffffff821117156130e257600080fd5b8060405250919050565b600067ffffffffffffffff82111561310357600080fd5b601f19601f8301169050602081019050919050565b600067ffffffffffffffff82111561312f57600080fd5b601f19601f8301169050602081019050919050565b60008190508160005260206000209050919050565b600081519050919050565b600081519050919050565b600082825260208201905092915050565b600081905092915050565b600082825260208201905092915050565b600081905092915050565b60006131b282613203565b9050919050565b60006131c482613203565b9050919050565b60008115159050919050565b60007fffffffff0000000000000000000000000000000000000000000000000000000082169050919050565b600073ffffffffffffffffffffffffffffffffffffffff82169050919050565b6000819050919050565b82818337600083830152505050565b60005b8381101561325a57808201518184015260208101905061323f565b83811115613269576000848401525b50505050565b6000601f19601f8301169050919050565b613289816131a7565b811461329457600080fd5b50565b6132a0816131cb565b81146132ab57600080fd5b50565b6132b7816131d7565b81146132c257600080fd5b50565b6132ce81613223565b81146132d957600080fd5b5056fe4552433732313a206f776e657220717565727920666f72206e6f6e6578697374656e7420746f6b656ea26469706673582212205a19f5e010d324d2b429e5c73313be99801e54ca2239289e543fda3ac037fd3564736f6c63430006090033",
  "immutableReferences": {},
  "source": "\r\n// SPDX-License-Identifier: MIT\r\n\r\npragma solidity ^0.6.0;\r\npragma experimental ABIEncoderV2;\r\n\r\nimport \"./ERC721.sol\";\r\n\r\ncontract photoToken is ERC721 {\r\n\r\n\tstruct Photo\r\n\t{\r\n        string photo_id;\r\n        uint size;\r\n        bool originality;\r\n\t}\r\n\r\n\tPhoto[] public photos;\r\n\r\n\tmapping(string => bool) _photoExists;\r\n\r\n\tconstructor () ERC721(\"Photo\",\"PIC\") public {\r\n\t}\r\n\r\n\tfunction mint(Photo memory _photo) public {\r\n\t\trequire(_photoExists[_photo.photo_id] == false, \"photo_id already exists\");\r\n\t\tphotos.push(_photo);\r\n\t\tuint _id = photos.length - 1;\r\n\t\t_photoExists[_photo.photo_id] = true;\r\n\t\t_mint(msg.sender, _id);\r\n\t}\r\n\r\n\tfunction look_up(Photo memory _photo) public pure returns(uint) {\r\n        uint value = 0;\r\n        if (_photo.size >= 0 && _photo.size <= 10) {value = 50;}\r\n        else if (_photo.size > 10 && _photo.size <= 20) {value = 100;}\r\n        else if (_photo.size > 20 ) {value = 200;}\r\n        else value = 0;\r\n        if (_photo.originality == true) {value = value * 2;}\r\n        return value;\r\n    }\r\n\r\n    function exchange(Photo memory _photo,uint _amount) public payable returns(bool){\r\n        uint requiredValue = look_up(_photo);\r\n        require(_amount==requiredValue,\"Incorrect value sent\");\r\n        \r\n    }\r\n\r\n}",
  "sourcePath": "Z:\\BD\\Smart Contract Essentials\\assignment\\trial2\\contracts\\photo_base.sol",
  "compiler": {
    "name": "solc",
    "version": "0.6.9+commit.3e3065ac.Emscripten.clang"
  },
  "schemaVersion": "3.2.0",
  "updatedAt": "2020-06-08T20:24:18.774Z",
  "devdoc": {
    "methods": {
      "approve(address,uint256)": {
        "details": "Approves another address to transfer the given token ID The zero address indicates there is no approved address. There can only be one approved address per token at a given time. Can only be called by the token owner or an approved operator.",
        "params": {
          "to": "address to be approved for the given token ID",
          "tokenId": "uint256 ID of the token to be approved"
        }
      },
      "balanceOf(address)": {
        "details": "Gets the balance of the specified address.",
        "params": {
          "owner": "address to query the balance of"
        },
        "returns": {
          "_0": "uint256 representing the amount owned by the passed address"
        }
      },
      "baseURI()": {
        "details": "Returns the base URI set via {_setBaseURI}. This will be automatically added as a prefix in {tokenURI} to each token's URI, or to the token ID if no specific URI is set for that token ID."
      },
      "getApproved(uint256)": {
        "details": "Gets the approved address for a token ID, or zero if no address set Reverts if the token ID does not exist.",
        "params": {
          "tokenId": "uint256 ID of the token to query the approval of"
        },
        "returns": {
          "_0": "address currently approved for the given token ID"
        }
      },
      "isApprovedForAll(address,address)": {
        "details": "Tells whether an operator is approved by a given owner.",
        "params": {
          "operator": "operator address which you want to query the approval of",
          "owner": "owner address which you want to query the approval of"
        },
        "returns": {
          "_0": "bool whether the given operator is approved by the given owner"
        }
      },
      "name()": {
        "details": "Gets the token name.",
        "returns": {
          "_0": "string representing the token name"
        }
      },
      "ownerOf(uint256)": {
        "details": "Gets the owner of the specified token ID.",
        "params": {
          "tokenId": "uint256 ID of the token to query the owner of"
        },
        "returns": {
          "_0": "address currently marked as the owner of the given token ID"
        }
      },
      "safeTransferFrom(address,address,uint256)": {
        "details": "Safely transfers the ownership of a given token ID to another address If the target address is a contract, it must implement {IERC721Receiver-onERC721Received}, which is called upon a safe transfer, and return the magic value `bytes4(keccak256(\"onERC721Received(address,address,uint256,bytes)\"))`; otherwise, the transfer is reverted. Requires the msg.sender to be the owner, approved, or operator",
        "params": {
          "from": "current owner of the token",
          "to": "address to receive the ownership of the given token ID",
          "tokenId": "uint256 ID of the token to be transferred"
        }
      },
      "safeTransferFrom(address,address,uint256,bytes)": {
        "details": "Safely transfers the ownership of a given token ID to another address If the target address is a contract, it must implement {IERC721Receiver-onERC721Received}, which is called upon a safe transfer, and return the magic value `bytes4(keccak256(\"onERC721Received(address,address,uint256,bytes)\"))`; otherwise, the transfer is reverted. Requires the _msgSender() to be the owner, approved, or operator",
        "params": {
          "_data": "bytes data to send along with a safe transfer check",
          "from": "current owner of the token",
          "to": "address to receive the ownership of the given token ID",
          "tokenId": "uint256 ID of the token to be transferred"
        }
      },
      "setApprovalForAll(address,bool)": {
        "details": "Sets or unsets the approval of a given operator An operator is allowed to transfer all tokens of the sender on their behalf.",
        "params": {
          "approved": "representing the status of the approval to be set",
          "operator": "operator address to set the approval"
        }
      },
      "supportsInterface(bytes4)": {
        "details": "See {IERC165-supportsInterface}. Time complexity O(1), guaranteed to always use less than 30 000 gas."
      },
      "symbol()": {
        "details": "Gets the token symbol.",
        "returns": {
          "_0": "string representing the token symbol"
        }
      },
      "tokenByIndex(uint256)": {
        "details": "Gets the token ID at a given index of all the tokens in this contract Reverts if the index is greater or equal to the total number of tokens.",
        "params": {
          "index": "uint256 representing the index to be accessed of the tokens list"
        },
        "returns": {
          "_0": "uint256 token ID at the given index of the tokens list"
        }
      },
      "tokenOfOwnerByIndex(address,uint256)": {
        "details": "Gets the token ID at a given index of the tokens list of the requested owner.",
        "params": {
          "index": "uint256 representing the index to be accessed of the requested tokens list",
          "owner": "address owning the tokens list to be accessed"
        },
        "returns": {
          "_0": "uint256 token ID at the given index of the tokens list owned by the requested address"
        }
      },
      "tokenURI(uint256)": {
        "details": "Returns the URI for a given token ID. May return an empty string. If a base URI is set (via {_setBaseURI}), it is added as a prefix to the token's own URI (via {_setTokenURI}). If there is a base URI but no token URI, the token's ID will be used as its URI when appending it to the base URI. This pattern for autogenerated token URIs can lead to large gas savings. .Examples |=== |`_setBaseURI()` |`_setTokenURI()` |`tokenURI()` | \"\" | \"\" | \"\" | \"\" | \"token.uri/123\" | \"token.uri/123\" | \"token.uri/\" | \"123\" | \"token.uri/123\" | \"token.uri/\" | \"\" | \"token.uri/<tokenId>\" |=== Requirements: - `tokenId` must exist."
      },
      "totalSupply()": {
        "details": "Gets the total amount of tokens stored by the contract.",
        "returns": {
          "_0": "uint256 representing the total amount of tokens"
        }
      },
      "transferFrom(address,address,uint256)": {
        "details": "Transfers the ownership of a given token ID to another address. Usage of this method is discouraged, use {safeTransferFrom} whenever possible. Requires the msg.sender to be the owner, approved, or operator.",
        "params": {
          "from": "current owner of the token",
          "to": "address to receive the ownership of the given token ID",
          "tokenId": "uint256 ID of the token to be transferred"
        }
      }
    }
  },
  "userdoc": {
    "methods": {}
  }
}